:1000000007C100002BC1000029C1000027C100006A
:1000100025C1000023C1000021C100001FC1000054
:100020001DC100001BC1000019C1000017C1000064
:1000300015C100000C948C150C94350C0C946D0CAF
:100040000C94A50C0C94DD0C0C94150D0C944D0D1A
:100050000C94850D0C94BD0D0C94F50D0C942D0E87
:10006000FDC00000FBC00000F9C00000F7C00000A8
:10007000F5C00000F3C00000F1C00000EFC00000B8
:10008000EDC00000EBC00000E9C00000E7C00000C8
:10009000E5C00000E3C00000E1C000000C943B1A82
:1000A0000C94781A0C94B51A0C94F21AD7C000006C
:1000B000D5C00000D3C000000C94F0150C9495102E
:1000C0000C94CD100C9405110C943D110C947511E9
:1000D0000C94AD110C94E5110C941D120C94551256
:1000E0000C948D12BBC00000B9C00000B7C0000066
:1000F000B5C00000B3C00000B1C00000AFC0000038
:10010000ADC00000ABC00000A9C00000A7C0000047
:10011000A5C00000A3C00000A1C000000C944719B6
:100120000C9484190C94C1190C94FE1997C000000A
:100130000C94BE150C94650E0C949D0E0C94D50E6B
:100140000C940D0F0C94450F0C947D0F0C94B50F6F
:100150000C94ED0F0C9425100C945D107FC00000E2
:100160007DC000007BC0000079C0000077C00000A7
:1001700075C0000073C0000071C000006FC00000B7
:100180006DC000006BC0000069C0000067C00000C7
:1001900065C0000063C0000061C000005FC00000D7
:1001A0005EC000005BC0000059C000000C94221625
:1001B0000C94C5120C94FD120C9435130C946D1311
:1001C0000C94A5130C94DD130C9415140C944D147D
:1001D0000C9485140C94BD1441C000003FC0000075
:1001E0003DC000003BC0000039C0000037C0000027
:1001F00035C0000023054606650446064606460649
:10020000C30546065F05B80446064606A404AE04C8
:1002100011241FBECFEFCDBFDFE3DEBF00E00CBF78
:1002200018BE19BE1ABE1BBE10E2A0E0B0E2ECE39D
:10023000F5E400E00BBF02C007900D92AE3FB1079E
:10024000D9F71BBE21E2AEEFB0E201C01D92AD377F
:10025000B207E1F70E94C91E0C949C22D1CE1F92D6
:100260000F920FB60F92112408B60F9218BE09B65E
:100270000F9219BE0BB60F921BBE2F933F934F9355
:100280005F936F937F938F939F93AF93BF93EF93FE
:10029000FF93E0910821F0910921309751F080916E
:1002A000A80682FF06C0809106219091072119952A
:1002B0001FC0E0910421F0910521309751F0809109
:1002C000A80683FF06C08091022190910321199511
:1002D0000FC0E0910021F0910121309749F0809109
:1002E000A80684FF05C08091FE209091FF201995FB
:1002F00081E08093AC06FF91EF91BF91AF919F9108
:100300008F917F916F915F914F913F912F910F90BE
:100310000BBE0F9009BE0F9008BE0F900FBE0F903E
:100320001F901895CF93DF9300D01F92CDB7DEB703
:10033000F9014115510509F46EC03FB73C83F894AB
:100340003C81F8946A32710581059105E9F4409386
:10035000082150930921E0930621F0930721E0EA58
:10036000F6E081E081878285846082878FB78B8306
:10037000F8949B81E2EBF6E08081887F8083808126
:1003800080839FBF81E045C06B3271058105910577
:10039000E9F44093042150930521E0930221F09366
:1003A0000321E0EAF6E081E0818782858860828728
:1003B0008FB78A83F8949A81E3EBF6E08081887F97
:1003C0008083808180839FBF81E023C06C32710570
:1003D00081059105E9F44093002150930121E093B8
:1003E000FE20F093FF20E0EAF6E081E0818782853D
:1003F000806182878FB78983F8949981E4EBF6E076
:100400008081887F8083808180839FBF81E001C05D
:1004100080E03FBF01C080E02496CDBFDEBFDF910A
:10042000CF91089540E050E064E080EA96E00E94B9
:10043000B91DF89487E08093A20078940895AF9254
:10044000BF92CF92DF92EF92FF920F931F93CF93C1
:10045000DF931F921F92CDB7DEB77B016A01A22EF8
:10046000FC0100811181198221E030E0AE014F5F73
:100470005F4F62E9C8010E94C60A8981F0FE1AC076
:10048000C114D10469F0F601408151816281738108
:1004900040931520509316206093172070931820D6
:1004A000AA2021F08160BB24B39405C08E7FBB24B9
:1004B000B39401C0B12CF3FE19C0C114D10469F08A
:1004C000F6014081518162817381409319205093DC
:1004D0001A2060931B2070931C20AA2021F08260B8
:1004E000BB24B39403C08D7FBB24B394F4FE19C026
:1004F000C114D10469F0F601408151816281738198
:1005000040931D2050931E2060931F207093202045
:10051000AA2021F08260BB24B39403C08D7FBB244A
:10052000B394898321E030E0AE014F5F5F4F62E911
:10053000C8010E94080B1A8221E030E0AE014E5F34
:100540005F4F62E9C8010E94C60A8B2D0F900F9081
:10055000DF91CF911F910F91FF90EF90DF90CF909F
:10056000BF90AF9008950F931F93CF93DF9300D068
:100570001F92CDB7DEB7FC018A0180819181653081
:1005800031F0673001F1633009F093C074C022E0AC
:1005900030E0AE014F5F5F4F6CE8F8D74A8150E022
:1005A000542F44272981422B052E000C660B770B14
:1005B000F801408351836283738321E0029709F439
:1005C0007DC020E07BC024E030E0AE014F5F5F4F94
:1005D0006EE8DCD7F8012089222379F1298121FDF9
:1005E00004C040E050E0BA0104C043E050E060E0E5
:1005F00070E0F801408351836283738323FD04C05C
:1006000040E050E0BA0104C043E050E060E070E038
:10061000F801448355836683778325FD04C040E059
:1006200050E0BA0104C043E050E060E070E0F8013F
:10063000408751876287738719C04A8150E060E024
:1006400070E0F80140835183628373834B8150E0F3
:1006500060E070E044835583668377834C8150E08B
:1006600060E070E0408751876287738721E00497DC
:1006700029F120E023C0198221E030E0AE014F5F74
:100680005F4F6AE883D78981482F42954F7050E0C9
:1006900060E070E0F80140835183628373838F7060
:1006A00090E0A0E0B0E084839583A683B78321E047
:1006B00005C080E092E88783908720E0822F24960F
:1006C000CDBFDEBFDF91CF911F910F9108950F93A2
:1006D0001F93CF93DF93CDB7DEB72797CDBFDEBF94
:1006E0008C0181E0F801868327E030E0AE014F5FA6
:1006F0005F4F6781C8014AD7F80116828581811151
:10070000BBC0FCD7E0E0F0E2608B718B828B938BF7
:10071000108211828F818076803209F44EC018F4E5
:10072000882341F0A9C0803409F447C0803609F01D
:10073000A3C043C08A8190E0982F88272981822B0B
:10074000209110213091112182179307B8F0E0E039
:10075000F0E220E030E120833183A0E0B0E0848348
:100760009583A683B783E5E1F0E262857385008413
:10077000F185E02D80E090E219957EC020910E2158
:1007800030910F212817390708F476C0E0E0F0E235
:1007900020E038E020833183A0E0B0E084839583BB
:1007A000A683B783E5E1F0E2668177810480F58175
:1007B000E02D80E090E219955FC020E031E02093C9
:1007C000002030930120803239F481E090E0809362
:1007D0000220909303200FC0803439F482E090E02F
:1007E000809302209093032006C083E090E08093E2
:1007F0000220909303208B8181FD04C040E050E0F3
:10080000BA0104C043E050E060E070E0409304208F
:1008100050930520609306207093072083FD04C049
:1008200040E050E0BA0104C043E050E060E070E016
:10083000409308205093092060930A2070930B2066
:1008400085FD04C080E090E0DC0104C083E090E01E
:10085000A0E0B0E080930C2090930D20A0930E2098
:10086000B0930F20E5E1F0E2628173810190F081A5
:10087000E02D80E090E219952796CDBFDEBFDF9195
:10088000CF911F910F910895CF92DF92EF92FF9237
:100890000F931F93CF93DF93CDB7DEB72C97CDBFC8
:1008A000DEBF9C01FC0100811181862F90E0FC01DC
:1008B0003E97EE30F10508F0E9C17A01D9018827A9
:1008C000E650FF4F8F4F0C94A81F14962D913C912A
:1008D0001597FA0180818130E1F0823009F0DDC1A5
:1008E0002032310559F4198621E030E0AE01475F2E
:1008F0005F4F60E8C8018CD621E0E4C11A8621E090
:1009000030E0AE01465F5F4F61E8C80181D621E06B
:10091000D9C12032310561F483E08B8721E030E0DA
:10092000AE01455F5F4F60E8C80172D621E0CAC1E1
:1009300083E08C8721E030E0AE01445F5F4F61E8E7
:10094000C80166D621E0BEC1FA016081718121E053
:1009500040E050E0CD0173DD282FB4C1FA01608181
:10096000718120E040E050E0CD0169DD282FAAC16F
:100970001996CD90DC901A97FA01918122819B8380
:100980008081893009F447C08A3021F0883009F02D
:1009900056C02DC0FFEFCF16DF0651F00CF451C04A
:1009A000C6010197039708F04CC0CA9480E002C0CA
:1009B00082E0C12CDC2CC80EC394F70181818887AA
:1009C00063E96D0D21E030E0AE01485F5F4FC80183
:1009D0001FD68D2D90E041E050E0BE016D5F7F4F4E
:1009E000489658D6D394DC10E8CF21E06BC19983A8
:1009F0002A8390930E2120930F2122E030E0AE0154
:100A00004F5F5F4F68E9C80103D621E0029709F400
:100A100059C120E057C199832A83909310212093D4
:100A2000112122E030E0AE014F5F5F4F66E9C8015F
:100A3000EFD521E0029709F445C120E043C120E051
:100A400041C120E03FC1FA018081893079F18A30CB
:100A500021F0883009F023C120C019966D917C9156
:100A60001A976F3FFFEF7F0731F0CB010197039794
:100A700008F017C102C061E070E019826E5621E0F3
:100A800030E0AE014F5F5F4FC80180D5898190E0B3
:100A9000F7018183928321E015C180910E2190910D
:100AA0000F21FA018183928321E00CC180911021F2
:100AB00090911121FA018183928321E003C1FA010F
:100AC000E080F1801496CD90DC901597C5FEF7C0BC
:100AD000E114F104E1F0F1E0EF16F10479F082E0C5
:100AE000E816F10471F095E0E916F10469F0EAE026
:100AF000EE16F10411F584E090E00BC081E090E087
:100B000008C082E090E005C083E090E002C080E091
:100B100090E0FC01EE0FFF1F8E0F9F1FFC01E653BC
:100B2000FF4D82818F8321E030E0AE01495F5F4F4E
:100B300066E8C8016DD521E0C3C0D0FCBAC020E092
:100B4000C1C043815481E416F506B9F402C080E0C7
:100B500090E0FC01EE0FFF1F8E0F9F1FFC01E4557C
:100B6000FF4D82818E8321E030E0AE014A5F5F4F0E
:100B700065E8C8014DD521E0A5C0019633968A30BD
:100B80009105F9F69FC0FA01408151814530510528
:100B900051F0E9EDF0E281E090E023813481241707
:100BA0003507A9F402C080E090E01996ED90FC9022
:100BB0001A97FC01EE0FFF1F8E0F9F1FFC01E752DB
:100BC000FF4DD280FFEFEF16FF0669F507C00196D3
:100BD00033968730910509F720E074C0198221E02F
:100BE00030E0AE014F5F5F4F62E8C801CFD489812A
:100BF000807C8D299D2D990F990F990F892B8B83BF
:100C000021E030E0AE014D5F5F4F62E8C80100D5E2
:100C1000D98221E030E0AE014F5F5F4F63E8C80149
:100C2000F7D421E04FC0C7010197029700F5198260
:100C300021E030E0AE014F5F5F4F62E8C801A6D40B
:100C40008981EA94EF2819F4887FD82A05C0DD0C41
:100C5000DD0CDD0C877CD82ADC8221E030E0AE019F
:100C60004C5F5F4F62E8C801D3D421E02BC0E3E0C2
:100C7000EE16F104C1F4DD8221E030E0AE014B5FFD
:100C80005F4F63E8C801C4D421E01CC080E090E855
:100C9000F9018783908720E015C020E013C020E091
:100CA00011C020E00FC020E00DC0E114F10411F4E8
:100CB0004ECF20E0ECEAF0E281E090E042CF20E08D
:100CC000D0FCF3CF822F2C96CDBFDEBFDF91CF912A
:100CD0001F910F91FF90EF90DF90CF900895EF92CA
:100CE000FF920F931F93CF93DF9300D01F92CDB746
:100CF000DEB7613039F020E230E0FC012783308735
:100D000080E067C08C01FC01E080F1804230510539
:100D1000A9F04330510501F14130510509F053C0AC
:100D20001C8221E030E0AE014C5F5F4F6FE8C701ED
:100D30002DD48C8180930A2181E04BC01C8221E05C
:100D400030E0AE014C5F5F4F60E9C7011FD48C817A
:100D500080930B2181E03DC01C8221E030E0AE0198
:100D60004C5F5F4F61E9C70111D48C8180930C21E6
:100D700043E050E06AE071E288E190E08BD443E028
:100D800050E0BE016F5F7F4F88E190E099D443E06F
:100D900050E0BE016F5F7F4F8AE091E20E94C01F6A
:100DA000892B39F080E091E0F8018783908780E01B
:100DB00010C023E030E0AE014F5F5F4F63E9C70131
:100DC00027D481E006C080E290E0F8018783908715
:100DD00080E02496CDBFDEBFDF91CF911F910F91B0
:100DE000FF90EF900895EF92FF920F931F93CF9390
:100DF000DF93CDB7DEB72B97CDBFDEBF7C01FC0103
:100E0000008111811C8221E030E0AE014C5F5F4F18
:100E10006AE8C801BBD38C81843909F08EC083E9AC
:100E200090E2F7018283938380E190E0F801868F5E
:100E3000978F8CE8878380910D2181110AC084E00F
:100E40008B8721E030E0AE01455F5F4F60E8C8016D
:100E5000DFD3F701848185FF14C083E0898721E017
:100E600030E0AE01475F5F4F60E8C801D1D382E058
:100E70008A8721E030E0AE01465F5F4F66E8C80137
:100E8000C7D3F7018481958190FF3AC00F2EF3E01C
:100E9000FF2EF02DFD8221E030E0AE014B5F5F4F71
:100EA00061E8C801B5D385E08E8321E030E0AE0172
:100EB0004A5F5F4F65E8C801ABD38BED8F8321E0BC
:100EC00030E0AE01495F5F4F62E8C801A1D3F88608
:100ED00021E030E0AE01485F5F4F63E8C80198D37E
:100EE00043E050E0BE016F5F7F4F88E190E0E8D3C0
:100EF00023E030E0AE014F5F5F4F63E9C80188D364
:100F000080910D21811115C01C8221E030E0AE01DD
:100F10004C5F5F4F62E9C8017BD3F8018581811185
:100F200008C06085718582859385980147E653E006
:100F3000E9D381E080930D2101C080E02B96CDBFE5
:100F4000DEBFDF91CF911F910F91FF90EF90089539
:100F50000895CF92DF92EF92FF920F931F93CF935A
:100F6000DF93EC018B016A017901CB01CED3888339
:100F700099830C831D83EB86FC86009779F0DC0156
:100F80009096ED91FC919197B601CE011995882329
:100F900029F081E08E831F82188605C080E092E0F0
:100FA0008F83988780E0DF91CF911F910F91FF9001
:100FB000EF90DF90CF9008951F93CF93DF93DC01E4
:100FC0001296ED91FC9113970190F081E02D3097EE
:100FD00031F0EA011995182F811108C00CC020E0EA
:100FE00032E8FC012783308710E005C087D36C8787
:100FF0007D878E879F87812FDF91CF911F910895E5
:10100000EF92FF920F931F93CF93DF931F921F9244
:10101000CDB7DEB76D3009F4C5C08C016E3030F449
:10102000693071F06A3009F464C0F5C0623109F4C6
:101030006AC0663109F4C0C0613109F0ECC00AC071
:10104000DC01ED91FC91808D918DFA01808391837B
:1010500081E0F6C0FC01A281B381A63FFFEFBF078C
:1010600009F440C051966D917C91529761157105BC
:10107000C9F11D968D919C911E97009799F1FA01E7
:10108000E080F180FB0120813181E216F30699F4C2
:1010900007C0339620813181E216F30681F402C045
:1010A00080E090E089839A831296ED91FC911397EA
:1010B000309751F417C0FB01AC0180E090E001963D
:1010C0008417950731F70EC0AE014F5F5F4F61E1A6
:1010D000C8011995882331F0D801ED91FC91E08E7B
:1010E000F18EAEC080E290E0F8018783908780E0C7
:1010F000A7C0DC01ED91FC91828D938DFA01808374
:10110000918381E09DC0FC01A281B381A63FFFEFE6
:10111000BF0709F440C053966D917C9154976115B7
:101120007105C9F11F968D919C915097009799F187
:10113000FA01E080F180FB0120813181E216F306A3
:1011400099F407C0339620813181E216F30681F4C9
:1011500002C080E090E089839A831296ED91FC9121
:101160001397309751F417C0FB01AC0180E090E079
:1011700001964817590731F70EC0AE014F5F5F4F18
:1011800062E1C8011995882331F0D801ED91FC91F5
:10119000E28EF38E55C080E290E0F801878390875D
:1011A00080E04EC0DC01ED91FC91848D958DFA01BB
:1011B0008083918381E044C0DC011296ED91FC9123
:1011C00013970280F381E02D309741F0DA01ED9022
:1011D000FC9066E11995811108C00EC080E092E88C
:1011E000F8018783908780E02BC0D801ED91FC91B6
:1011F000E48EF58E81E024C0F80187819085811509
:101200009248E9F080E290E0D80117968D939C9384
:10121000189780E015C0D8011296ED91FC911397B4
:101220000280F381E02D309719F0C801199508C0AC
:1012300080E092E8F8018783908780E001C080E039
:101240000F900F90DF91CF911F910F91FF90EF9032
:1012500008950F931F93CF93DF93CDB7DEB72997F0
:10126000CDBFDEBF8C01FE01319689E0DF011D920A
:101270008A95E9F749835A836B837C839A01AB0192
:10128000220F331F441F551F60E078E488EE91E081
:101290000E94861FDA01C9010597A109B1098D8352
:1012A0009E83AF83B8870115110509F45DC1003C29
:1012B000110529F460E180E00E94BC1C55C1003496
:1012C000B4E01B0729F468E080E00E94BC1C4CC11C
:1012D000011584E0180729F464E080E00E94BC1C3A
:1012E00043C10038A1E01A0729F462E080E00E94BF
:1012F000BC1C3AC10115B1E01B0729F461E080E094
:101300000E94BC1C31C1003883E0180729F461E059
:1013100081E00E94BC1C28C10039A3E01A0729F40F
:1013200061E082E00E94BC1C1FC10115B2E01B07F6
:1013300029F462E081E00E94BC1C16C1003482E006
:10134000180729F462E082E00E94BC1C0DC101155F
:10135000A3E01A0729F464E081E00E94BC1C04C1E8
:101360000032B3E01B0729F464E082E00E94BC1C59
:10137000FBC0011588E0180729F461E083E00E94B2
:10138000BC1CF2C00115A9E01A0729F461E084E051
:101390000E94BC1CE9C00115BAE01B0729F461E0FA
:1013A00085E00E94BC1CE0C001158BE0180729F401
:1013B00061E086E00E94BC1CD7C00034A8E01A0798
:1013C00029F462E083E00E94BC1CCEC00034B9E086
:1013D0001B0729F462E084E00E94BC1CC5C00034F5
:1013E0008AE0180729F462E085E00E94BC1CBCC0BA
:1013F0000034ABE01A0729F462E086E00E94BC1CCE
:10140000B3C00039B8E01B0729F464E083E00E9410
:10141000BC1CAAC0003989E0180729F464E084E004
:101420000E94BC1CA1C00039AAE01A0729F464E09C
:1014300085E00E94BC1C98C00039BBE01B0729F462
:1014400064E086E00E94BC1C8FC0003C88E0180766
:1014500029F468E083E00E94BC1C86C0003CA9E03F
:101460001A0729F468E084E00E94BC1C7DC0003C9F
:10147000BAE01B0729F468E085E00E94BC1C74C038
:10148000003C8BE0180729F468E086E00E94BC1C51
:101490006BC0003AA8E01A0729F460E183E00E94DB
:1014A000BC1C62C0003AB9E01B0729F460E184E08B
:1014B0000E94BC1C59C0003A8AE0180729F460E178
:1014C00085E00E94BC1C50C0003AABE01A0729F42A
:1014D00060E186E00E94BC1C47C0003BB8E01B07EF
:1014E00029F460E283E00E94BC1C3EC0003B89E01E
:1014F000180729F460E284E00E94BC1C35C0003B60
:10150000AAE01A0729F460E285E00E94BC1C2CC006
:10151000003BBBE01B0729F460E286E00E94BC1C94
:1015200023C0003884E0180729F460E483E00E94B7
:10153000BC1C1AC00039A4E01A0729F460E484E056
:101540000E94BC1C11C0003AB4E01B0729F460E4FF
:1015500085E00E94BC1C08C0003B84E0180721F411
:1015600060E486E00E94BC1CBE016F5F7F4FC80133
:101570000E94541691E0811190E0892F2996CDBFE9
:10158000DEBFDF91CF911F910F910895EF92FF92EF
:101590000F931F93CF93DF93CDB7DEB72B97CDBFBC
:1015A000DEBF8C01E22EF32EFE0131968BE0DF01CF
:1015B0001D928A95E9F7D80113968C911397898328
:1015C0006A8381E090E08D839E834F8358872987CB
:1015D0003A8716968C9116978B8741E0BF0111963A
:1015E0008D919C9112970E946916F8018583811153
:1015F00003C08E2D9F2D02C080E090E02B96CDBFC2
:10160000DEBFDF91CF911F910F91FF90EF90089572
:10161000EF92FF920F931F93CF93DF93CDB7DEB777
:101620002B97CDBFDEBF8C01E22EF32EFE0131964B
:101630008BE0DF011D928A95E9F7D80113968C9112
:10164000139789836A8381E090E08D839E834F8323
:10165000588729873A8716968C9116978B8740E092
:10166000BF0111968D919C9112970E946916F80105
:101670008583811103C08E2D9F2D02C080E090E0F4
:101680002B96CDBFDEBFDF91CF911F910F91FF90C1
:10169000EF9008950F93CF93DF93DC01EB019A0154
:1016A000E0ECF1E097859923ECF3BD0180E090E058
:1016B00001E0AE010E94041DDF91CF910F910895CA
:1016C000CF93DF93DC01EB019A01E0ECF1E0978529
:1016D0009923ECF3BD0180E090E0AE010E94E71C8D
:1016E000DF91CF91089504C061507109810991097A
:1016F0006115710581059105B9F7089560E070E005
:10170000CB0108950C9492010895209131203091DD
:101710003220282339238217930719F080E090E0C4
:10172000089581E290E20895CF930E946C1C0E947C
:10173000E01D40E85AE166E070E080EB94E089DD6E
:10174000C82F6BEA71E184E090E0CDDF8C2FCF9160
:101750000895CF93DF931F92CDB7DEB72FB72983BC
:10176000F8944981282F392F211582E0380729F470
:10177000609375217093762107C02034324021F4A4
:1017800060937321709374214FBF0F90DF91CF91BD
:101790000895811522E0920769F48091132191E068
:1017A000980F90931321811114C062E081E00C9492
:1017B000BC1C08958034924061F48091122191E024
:1017C000980F90931221811104C062E082E00C9482
:1017D000BC1C0895811522E0920761F480911321C9
:1017E000815080931321811113C062E081E00C9439
:1017F000D21C08958034924059F480911221815076
:1018000080931221811104C062E082E00C94D21C0A
:101810000895EF92FF921F93CF93DF931F921F9231
:10182000CDB7DEB77C018FB78983F8941981C701E2
:10183000B0DFF7018081816080831FBF80917821B4
:101840008F3F09F4FFCF8FB78A83F8949A81E7E737
:10185000F1E281818F5F81839FBF0F900F90DF91B5
:10186000CF911F91FF90EF9008951F920F920FB6A6
:101870000F92112408B60F9218BE09B60F9219BE26
:101880000BB60F921BBE2F933F934F935F936F93B3
:101890007F938F939F93AF93BF93EF93FF93E091C9
:1018A0006221F0916321309709F01995FF91EF9132
:1018B000BF91AF919F918F917F916F915F914F9168
:1018C0003F912F910F900BBE0F9009BE0F9008BE55
:1018D0000F900FBE0F901F9018951F920F920FB68A
:1018E0000F92112408B60F9218BE09B60F9219BEB6
:1018F0000BB60F921BBE2F933F934F935F936F9343
:101900007F938F939F93AF93BF93EF93FF93E09158
:101910006021F0916121309709F01995FF91EF91C5
:10192000BF91AF919F918F917F916F915F914F91F7
:101930003F912F910F900BBE0F9009BE0F9008BEE4
:101940000F900FBE0F901F9018951F920F920FB619
:101950000F92112408B60F9218BE09B60F9219BE45
:101960000BB60F921BBE2F933F934F935F936F93D2
:101970007F938F939F93AF93BF93EF93FF93E091E8
:101980005E21F0915F21309709F01995FF91EF9159
:10199000BF91AF919F918F917F916F915F914F9187
:1019A0003F912F910F900BBE0F9009BE0F9008BE74
:1019B0000F900FBE0F901F9018951F920F920FB6A9
:1019C0000F92112408B60F9218BE09B60F9219BED5
:1019D0000BB60F921BBE2F933F934F935F936F9362
:1019E0007F938F939F93AF93BF93EF93FF93E09178
:1019F0005C21F0915D21309709F01995FF91EF91ED
:101A0000BF91AF919F918F917F916F915F914F9116
:101A10003F912F910F900BBE0F9009BE0F9008BE03
:101A20000F900FBE0F901F9018951F920F920FB638
:101A30000F92112408B60F9218BE09B60F9219BE64
:101A40000BB60F921BBE2F933F934F935F936F93F1
:101A50007F938F939F93AF93BF93EF93FF93E09107
:101A60005A21F0915B21309709F01995FF91EF9180
:101A7000BF91AF919F918F917F916F915F914F91A6
:101A80003F912F910F900BBE0F9009BE0F9008BE93
:101A90000F900FBE0F901F9018951F920F920FB6C8
:101AA0000F92112408B60F9218BE09B60F9219BEF4
:101AB0000BB60F921BBE2F933F934F935F936F9381
:101AC0007F938F939F93AF93BF93EF93FF93E09197
:101AD0005821F0915921309709F01995FF91EF9114
:101AE000BF91AF919F918F917F916F915F914F9136
:101AF0003F912F910F900BBE0F9009BE0F9008BE23
:101B00000F900FBE0F901F9018951F920F920FB657
:101B10000F92112408B60F9218BE09B60F9219BE83
:101B20000BB60F921BBE2F933F934F935F936F9310
:101B30007F938F939F93AF93BF93EF93FF93E09126
:101B40005621F0915721309709F01995FF91EF91A7
:101B5000BF91AF919F918F917F916F915F914F91C5
:101B60003F912F910F900BBE0F9009BE0F9008BEB2
:101B70000F900FBE0F901F9018951F920F920FB6E7
:101B80000F92112408B60F9218BE09B60F9219BE13
:101B90000BB60F921BBE2F933F934F935F936F93A0
:101BA0007F938F939F93AF93BF93EF93FF93E091B6
:101BB0005421F0915521309709F01995FF91EF913B
:101BC000BF91AF919F918F917F916F915F914F9155
:101BD0003F912F910F900BBE0F9009BE0F9008BE42
:101BE0000F900FBE0F901F9018951F920F920FB677
:101BF0000F92112408B60F9218BE09B60F9219BEA3
:101C00000BB60F921BBE2F933F934F935F936F932F
:101C10007F938F939F93AF93BF93EF93FF93E09145
:101C20005221F0915321309709F01995FF91EF91CE
:101C3000BF91AF919F918F917F916F915F914F91E4
:101C40003F912F910F900BBE0F9009BE0F9008BED1
:101C50000F900FBE0F901F9018951F920F920FB606
:101C60000F92112408B60F9218BE09B60F9219BE32
:101C70000BB60F921BBE2F933F934F935F936F93BF
:101C80007F938F939F93AF93BF93EF93FF93E091D5
:101C90005021F0915121309709F01995FF91EF9162
:101CA000BF91AF919F918F917F916F915F914F9174
:101CB0003F912F910F900BBE0F9009BE0F9008BE61
:101CC0000F900FBE0F901F9018951F920F920FB696
:101CD0000F92112408B60F9218BE09B60F9219BEC2
:101CE0000BB60F921BBE2F933F934F935F936F934F
:101CF0007F938F939F93AF93BF93EF93FF93E09165
:101D00004E21F0914F21309709F01995FF91EF91F5
:101D1000BF91AF919F918F917F916F915F914F9103
:101D20003F912F910F900BBE0F9009BE0F9008BEF0
:101D30000F900FBE0F901F9018951F920F920FB625
:101D40000F92112408B60F9218BE09B60F9219BE51
:101D50000BB60F921BBE2F933F934F935F936F93DE
:101D60007F938F939F93AF93BF93EF93FF93E091F4
:101D70004C21F0914D21309709F01995FF91EF9189
:101D8000BF91AF919F918F917F916F915F914F9193
:101D90003F912F910F900BBE0F9009BE0F9008BE80
:101DA0000F900FBE0F901F9018951F920F920FB6B5
:101DB0000F92112408B60F9218BE09B60F9219BEE1
:101DC0000BB60F921BBE2F933F934F935F936F936E
:101DD0007F938F939F93AF93BF93EF93FF93E09184
:101DE0004A21F0914B21309709F01995FF91EF911D
:101DF000BF91AF919F918F917F916F915F914F9123
:101E00003F912F910F900BBE0F9009BE0F9008BE0F
:101E10000F900FBE0F901F9018951F920F920FB644
:101E20000F92112408B60F9218BE09B60F9219BE70
:101E30000BB60F921BBE2F933F934F935F936F93FD
:101E40007F938F939F93AF93BF93EF93FF93E09113
:101E50004821F0914921309709F01995FF91EF91B0
:101E6000BF91AF919F918F917F916F915F914F91B2
:101E70003F912F910F900BBE0F9009BE0F9008BE9F
:101E80000F900FBE0F901F9018951F920F920FB6D4
:101E90000F92112408B60F9218BE09B60F9219BE00
:101EA0000BB60F921BBE2F933F934F935F936F938D
:101EB0007F938F939F93AF93BF93EF93FF93E091A3
:101EC0004621F0914721309709F01995FF91EF9144
:101ED000BF91AF919F918F917F916F915F914F9142
:101EE0003F912F910F900BBE0F9009BE0F9008BE2F
:101EF0000F900FBE0F901F9018951F920F920FB664
:101F00000F92112408B60F9218BE09B60F9219BE8F
:101F10000BB60F921BBE2F933F934F935F936F931C
:101F20007F938F939F93AF93BF93EF93FF93E09132
:101F30004421F0914521309709F01995FF91EF91D7
:101F4000BF91AF919F918F917F916F915F914F91D1
:101F50003F912F910F900BBE0F9009BE0F9008BEBE
:101F60000F900FBE0F901F9018951F920F920FB6F3
:101F70000F92112408B60F9218BE09B60F9219BE1F
:101F80000BB60F921BBE2F933F934F935F936F93AC
:101F90007F938F939F93AF93BF93EF93FF93E091C2
:101FA0004221F0914321309709F01995FF91EF916B
:101FB000BF91AF919F918F917F916F915F914F9161
:101FC0003F912F910F900BBE0F9009BE0F9008BE4E
:101FD0000F900FBE0F901F9018951F920F920FB683
:101FE0000F92112408B60F9218BE09B60F9219BEAF
:101FF0000BB60F921BBE2F933F934F935F936F933C
:102000007F938F939F93AF93BF93EF93FF93E09151
:102010004021F0914121309709F01995FF91EF91FE
:10202000BF91AF919F918F917F916F915F914F91F0
:102030003F912F910F900BBE0F9009BE0F9008BEDD
:102040000F900FBE0F901F9018951F920F920FB612
:102050000F92112408B60F9218BE09B60F9219BE3E
:102060000BB60F921BBE2F933F934F935F936F93CB
:102070007F938F939F93AF93BF93EF93FF93E091E1
:102080003E21F0913F21309709F01995FF91EF9192
:10209000BF91AF919F918F917F916F915F914F9180
:1020A0003F912F910F900BBE0F9009BE0F9008BE6D
:1020B0000F900FBE0F901F9018951F920F920FB6A2
:1020C0000F92112408B60F9218BE09B60F9219BECE
:1020D0000BB60F921BBE2F933F934F935F936F935B
:1020E0007F938F939F93AF93BF93EF93FF93E09171
:1020F0003C21F0913D21309709F01995FF91EF9126
:10210000BF91AF919F918F917F916F915F914F910F
:102110003F912F910F900BBE0F9009BE0F9008BEFC
:102120000F900FBE0F901F9018951F920F920FB631
:102130000F92112408B60F9218BE09B60F9219BE5D
:102140000BB60F921BBE2F933F934F935F936F93EA
:102150007F938F939F93AF93BF93EF93FF93E09100
:102160003A21F0913B21309709F01995FF91EF91B9
:10217000BF91AF919F918F917F916F915F914F919F
:102180003F912F910F900BBE0F9009BE0F9008BE8C
:102190000F900FBE0F901F9018951F920F920FB6C1
:1021A0000F92112408B60F9218BE09B60F9219BEED
:1021B0000BB60F921BBE2F933F934F935F936F937A
:1021C0007F938F939F93AF93BF93EF93FF93E09190
:1021D0003821F0913921309709F01995FF91EF914D
:1021E000BF91AF919F918F917F916F915F914F912F
:1021F0003F912F910F900BBE0F9009BE0F9008BE1C
:102200000F900FBE0F901F9018951F920F920FB650
:102210000F92112408B60F9218BE09B60F9219BE7C
:102220000BB60F921BBE2F933F934F935F936F9309
:102230007F938F939F93AF93BF93EF93FF93E0911F
:102240003621F0913721309709F01995FF91EF91E0
:10225000BF91AF919F918F917F916F915F914F91BE
:102260003F912F910F900BBE0F9009BE0F9008BEAB
:102270000F900FBE0F901F9018951F920F920FB6E0
:102280000F92112408B60F9218BE09B60F9219BE0C
:102290000BB60F921BBE2F933F934F935F936F9399
:1022A0007F938F939F93AF93BF93EF93FF93E091AF
:1022B0003421F0913521309709F01995FF91EF9174
:1022C000BF91AF919F918F917F916F915F914F914E
:1022D0003F912F910F900BBE0F9009BE0F9008BE3B
:1022E0000F900FBE0F901F9018951F920F920FB670
:1022F0000F92112408B60F9218BE09B60F9219BE9C
:102300000BB60F921BBE2F933F934F935F936F9328
:102310007F938F939F93AF93BF93EF93FF93E0913E
:102320003221F0913321309709F01995FF91EF9107
:10233000BF91AF919F918F917F916F915F914F91DD
:102340003F912F910F900BBE0F9009BE0F9008BECA
:102350000F900FBE0F901F9018951F920F920FB6FF
:102360000F92112408B60F9218BE09B60F9219BE2B
:102370000BB60F921BBE2F933F934F935F936F93B8
:102380007F938F939F93AF93BF93EF93FF93E091CE
:102390003021F0913121309709F01995FF91EF919B
:1023A000BF91AF919F918F917F916F915F914F916D
:1023B0003F912F910F900BBE0F9009BE0F9008BE5A
:1023C0000F900FBE0F901F9018951F920F920FB68F
:1023D0000F92112408B60F9218BE09B60F9219BEBB
:1023E0000BB60F921BBE2F933F934F935F936F9348
:1023F0007F938F939F93AF93BF93EF93FF93E0915E
:102400002E21F0912F21309709F01995FF91EF912E
:10241000BF91AF919F918F917F916F915F914F91FC
:102420003F912F910F900BBE0F9009BE0F9008BEE9
:102430000F900FBE0F901F9018951F920F920FB61E
:102440000F92112408B60F9218BE09B60F9219BE4A
:102450000BB60F921BBE2F933F934F935F936F93D7
:102460007F938F939F93AF93BF93EF93FF93E091ED
:102470002C21F0912D21309709F01995FF91EF91C2
:10248000BF91AF919F918F917F916F915F914F918C
:102490003F912F910F900BBE0F9009BE0F9008BE79
:1024A0000F900FBE0F901F9018951F920F920FB6AE
:1024B0000F92112408B60F9218BE09B60F9219BEDA
:1024C0000BB60F921BBE2F933F934F935F936F9367
:1024D0007F938F939F93AF93BF93EF93FF93E0917D
:1024E0002A21F0912B21309709F01995FF91EF9156
:1024F000BF91AF919F918F917F916F915F914F911C
:102500003F912F910F900BBE0F9009BE0F9008BE08
:102510000F900FBE0F901F9018951F920F920FB63D
:102520000F92112408B60F9218BE09B60F9219BE69
:102530000BB60F921BBE2F933F934F935F936F93F6
:102540007F938F939F93AF93BF93EF93FF93E0910C
:102550002821F0912921309709F01995FF91EF91E9
:10256000BF91AF919F918F917F916F915F914F91AB
:102570003F912F910F900BBE0F9009BE0F9008BE98
:102580000F900FBE0F901F9018951F920F920FB6CD
:102590000F92112408B60F9218BE09B60F9219BEF9
:1025A0000BB60F921BBE2F933F934F935F936F9386
:1025B0007F938F939F93AF93BF93EF93FF93E0919C
:1025C0002621F0912721309709F01995FF91EF917D
:1025D000BF91AF919F918F917F916F915F914F913B
:1025E0003F912F910F900BBE0F9009BE0F9008BE28
:1025F0000F900FBE0F901F9018951F920F920FB65D
:102600000F92112408B60F9218BE09B60F9219BE88
:102610000BB60F921BBE2F933F934F935F936F9315
:102620007F938F939F93AF93BF93EF93FF93E0912B
:102630002421F0912521309709F01995FF91EF9110
:10264000BF91AF919F918F917F916F915F914F91CA
:102650003F912F910F900BBE0F9009BE0F9008BEB7
:102660000F900FBE0F901F9018951F920F920FB6EC
:102670000F92112408B60F9218BE09B60F9219BE18
:102680000BB60F921BBE2F933F934F935F936F93A5
:102690007F938F939F93AF93BF93EF93FF93E091BB
:1026A0002221F0912321309709F01995FF91EF91A4
:1026B000BF91AF919F918F917F916F915F914F915A
:1026C0003F912F910F900BBE0F9009BE0F9008BE47
:1026D0000F900FBE0F901F9018951F920F920FB67C
:1026E0000F92112408B60F9218BE09B60F9219BEA8
:1026F0000BB60F921BBE2F933F934F935F936F9335
:102700007F938F939F93AF93BF93EF93FF93E0914A
:102710002021F0912121309709F01995FF91EF9137
:10272000BF91AF919F918F917F916F915F914F91E9
:102730003F912F910F900BBE0F9009BE0F9008BED6
:102740000F900FBE0F901F9018951F920F920FB60B
:102750000F92112408B60F9218BE09B60F9219BE37
:102760000BB60F921BBE2F933F934F935F936F93C4
:102770007F938F939F93AF93BF93EF93FF93E091DA
:102780001E21F0911F21309709F01995FF91EF91CB
:10279000BF91AF919F918F917F916F915F914F9179
:1027A0003F912F910F900BBE0F9009BE0F9008BE66
:1027B0000F900FBE0F901F9018951F920F920FB69B
:1027C0000F92112408B60F9218BE09B60F9219BEC7
:1027D0000BB60F921BBE2F933F934F935F936F9354
:1027E0007F938F939F93AF93BF93EF93FF93E0916A
:1027F0001C21F0911D21309709F01995FF91EF915F
:10280000BF91AF919F918F917F916F915F914F9108
:102810003F912F910F900BBE0F9009BE0F9008BEF5
:102820000F900FBE0F901F9018951F920F920FB62A
:102830000F92112408B60F9218BE09B60F9219BE56
:102840000BB60F921BBE2F933F934F935F936F93E3
:102850007F938F939F93AF93BF93EF93FF93E091F9
:102860001A21F0911B21309709F01995FF91EF91F2
:10287000BF91AF919F918F917F916F915F914F9198
:102880003F912F910F900BBE0F9009BE0F9008BE85
:102890000F900FBE0F901F9018951F920F920FB6BA
:1028A0000F92112408B60F9218BE09B60F9219BEE6
:1028B0000BB60F921BBE2F933F934F935F936F9373
:1028C0007F938F939F93AF93BF93EF93FF93E09189
:1028D0001821F0911921309709F01995FF91EF9186
:1028E000BF91AF919F918F917F916F915F914F9128
:1028F0003F912F910F900BBE0F9009BE0F9008BE15
:102900000F900FBE0F901F9018951F920F920FB649
:102910000F92112408B60F9218BE09B60F9219BE75
:102920000BB60F921BBE2F933F934F935F936F9302
:102930007F938F939F93AF93BF93EF93FF93E09118
:102940001621F0911721309709F01995FF91EF9119
:10295000BF91AF919F918F917F916F915F914F91B7
:102960003F912F910F900BBE0F9009BE0F9008BEA4
:102970000F900FBE0F901F9018951F920F920FB6D9
:102980000F92112408B60F9218BE09B60F9219BE05
:102990000BB60F921BBE2F933F934F935F936F9392
:1029A0007F938F939F93AF93BF93EF93FF93E091A8
:1029B0001421F0911521309709F01995FF91EF91AD
:1029C000BF91AF919F918F917F916F915F914F9147
:1029D0003F912F910F900BBE0F9009BE0F9008BE34
:1029E0000F900FBE0F901F901895CF93DF93E0913B
:1029F0006421F0916521848183FF08C0886084830D
:102A000083E0838386EF80936E2183C0982F947137
:102A100031F083E083838FEF80936E217AC086FF4D
:102A200043C0C4E6D1E2AA81BB818C819D8114960A
:102A30002D913C911597821793076CF49C012F5FA1
:102A40003F4F2093682130936921A80FB91F119639
:102A50008C9187835EC080916A2190916B2118963A
:102A60002D913C91199782179307C8F420916C21FE
:102A7000222321F08681816086834BC016962D919A
:102A80003C911797AC014F5F5F4F40936A21509381
:102A90006B21D901A80FB91F8C9187833AC083E0BD
:102AA000838310926E2135C0882384F5A4E6B1E2B9
:102AB0001296CD91DC91139716968D919C91179754
:102AC0002885398582179307D8F46E817F819C0110
:102AD0002F5F3F4F20936A2130936B214781DB01A9
:102AE000A80FB91F4C93888599852817390718F4C2
:102AF00082E083830EC087E0838310926E2109C039
:102B000083E0838389EF80936E2103C08BEF8093F2
:102B10006E21DF91CF9108951F920F920FB60F9201
:102B2000112408B60F9218BE09B60F9219BE0BB643
:102B30000F921BBE2F933F934F935F936F937F939F
:102B40008F939F93AF93BF93EF93FF934EDFFF91CC
:102B5000EF91BF91AF919F918F917F916F915F9115
:102B60004F913F912F910F900BBE0F9009BE0F9088
:102B700008BE0F900FBE0F901F9018951F920F92D6
:102B80000FB60F92112408B60F9218BE09B60F9215
:102B900019BE0BB60F921BBE2F933F934F935F93BB
:102BA0006F937F938F939F93AF93BF93EF93FF9315
:102BB0001CDFFF91EF91BF91AF919F918F917F911A
:102BC0006F915F914F913F912F910F900BBE0F909E
:102BD00009BE0F9008BE0F900FBE0F901F90189562
:102BE0001F920F920FB60F92112408B60F9218BEC3
:102BF00009B60F9219BE0BB60F921BBE2F933F93CF
:102C00004F935F936F937F938F939F93AF93BF93F4
:102C1000EF93FF93EADEFF91EF91BF91AF919F9108
:102C20008F917F916F915F914F913F912F910F9075
:102C30000BBE0F9009BE0F9008BE0F900FBE0F90F5
:102C40001F9018951F920F920FB60F92112408B67D
:102C50000F9218BE09B60F9219BE0BB60F921BBE8B
:102C60002F933F934F935F936F937F938F939F9394
:102C7000AF93BF93EF93FF93B8DEFF91EF91BF91B6
:102C8000AF919F918F917F916F915F914F913F9104
:102C90002F910F900BBE0F9009BE0F9008BE0F90A2
:102CA0000FBE0F901F901895FC01DB0114968C91BC
:102CB000858388EB818381E08483E4E6F1E21186F9
:102CC0001286E0EAF0E0828182608283789480E07C
:102CD0000895CF93DF931F92CDB7DEB79C01FB0120
:102CE000892B09F451C0309709F450C09285809126
:102CF0006D21882319F09923F1F34AC08FB7898396
:102D0000F8948981A4E6B1E291E019969C93199711
:102D100090E81A969C931A978FBF2D933C93119726
:102D200012966D937C93139714961D921C9215978F
:102D300016961D921C92179718964C938081880FB7
:102D400064817581672B11F4411103C0F9018683F9
:102D500003C08160F9018683E4E6F1E29285903850
:102D6000E9F3F90184818370813049F0A4E6B1E28E
:102D7000ED91FC911197848183708130C9F7E4E66D
:102D8000F1E28285118605C088EF03C088EF01C09B
:102D900086EF0F90DF91CF910895FC01918195FF0F
:102DA000FDCF608380E090E008954F925F926F9234
:102DB0007F928F929F92AF92BF92EF92FF920F936A
:102DC0001F93CF937C014A015B0128013901FC016B
:102DD000848182FF16C0D901C801689412F8B695A3
:102DE000A795979587951694D1F7B901A801032E59
:102DF00036E176956795579547953A95D1F7302DF9
:102E000015C0D901C801689413F8B695A795979590
:102E100087951694D1F7B901A801032E37E176956D
:102E20006795579547953A95D1F7302D88159905AF
:102E3000AA05BB0508F4A4C084169506A606B70625
:102E400008F4A0C0F701848182FD04C0880C991C9D
:102E5000AA1CBB1CC301B201A50194010E94861FDC
:102E60002F3F31054105510508F48EC08FEF90E0EA
:102E7000A0E0B0E0C9EF05C0281739074A075B0793
:102E800058F0880F991FAA1FBB1FCD3F0CF481601B
:102E9000CF5FC73089F74EC0CC230CF04BC0D501B3
:102EA000C401880F991FAA1FBB1F880F991FAA1F53
:102EB000BB1F880F991FAA1FBB1F481A590A6A0A0D
:102EC0007B0ACE3FF4F48DEF9FEF8C1B9109C7FD79
:102ED000939504C0440C551C661C771C8A95D2F748
:102EE000D501C401B695A79597958795BC01CD01ED
:102EF000640D751D861D971DA50194010E94861FF6
:102F000035C083E08C0FA501940104C0220F331F4C
:102F1000441F551F8A95D2F7DA01C901B695A795C6
:102F200097958795BC01CD01640D751D861D971D74
:102F3000EDD71CC083E08C0FA501940104C0220FC3
:102F4000331F441F551F8A95D2F7DA01C901B69580
:102F5000A79597958795BC01CD01640D751D861DBC
:102F6000971DD4D72150310941095109832F8F7002
:102F7000C295C07FC82BF701C783268381E018C0A4
:102F800080E016C080E014C0D501C401880F991FED
:102F9000AA1FBB1F880F991FAA1FBB1F880F991F4D
:102FA000AA1FBB1F481A590A6A0A7B0AC9EF8BCFAE
:102FB000CF911F910F91FF90EF90BF90AF909F9096
:102FC0008F907F906F905F904F9008950F931F9315
:102FD000CF93DF93EC018B01009709F436C1803C5D
:102FE000910521F460E180E0C7D42FC1C03484E0B2
:102FF000D80721F468E080E0BFD427C1C115E4E020
:10300000DE0721F464E080E0B7D41FC1C038F1E0EE
:10301000DF0721F462E080E0AFD417C1C11581E081
:10302000D80721F461E080E0A7D40FC1C038E3E005
:10303000DE0721F461E081E09FD407C1C039F3E0ED
:10304000DF0721F461E082E097D4FFC0C11582E080
:10305000D80721F462E081E08FD4F7C0C034E2E009
:10306000DE0721F462E082E087D4EFC0C115F3E00F
:10307000DF0721F464E081E07FD4E7C0C03283E061
:10308000D80721F464E082E077D4DFC0C115E8E01E
:10309000DE0721F461E083E06FD4D7C0C115F9E009
:1030A000DF0721F461E084E067D4CFC0C1158AE076
:1030B000D80721F461E085E05FD4C7C0C115EBE01B
:1030C000DE0721F461E086E057D4BFC0C034F8E0E9
:1030D000DF0721F462E083E04FD4B7C0C03489E059
:1030E000D80721F462E084E047D4AFC0C034EAE0FE
:1030F000DE0721F462E085E03FD4A7C0C034FBE0E6
:10310000DF0721F462E086E037D49FC0C03988E051
:10311000D80721F464E083E02FD497C0C039E9E0F8
:10312000DE0721F464E084E027D48FC0C039FAE0E0
:10313000DF0721F464E085E01FD487C0C0398BE04D
:10314000D80721F464E086E017D47FC0C03CE8E0F3
:10315000DE0721F468E083E00FD477C0C03CF9E0DB
:10316000DF0721F468E084E007D46FC0C03C8AE048
:10317000D80721F468E085E0FFD367C0C03CEBE0EE
:10318000DE0721F468E086E0F7D35FC0C03AF8E0DC
:10319000DF0721F460E183E0EFD357C0C03A89E054
:1031A000D80721F460E184E0E7D34FC0C03AEAE0F9
:1031B000DE0721F460E185E0DFD347C0C03AFBE0E1
:1031C000DF0721F460E186E0D7D33FC0C03B88E051
:1031D000D80721F460E283E0CFD337C0C03BE9E0F9
:1031E000DE0721F460E284E0C7D32FC0C03BFAE0E1
:1031F000DF0721F460E285E0BFD327C0C03B8BE04E
:10320000D80721F460E286E0B7D31FC0C038E4E0FD
:10321000DE0721F460E483E0AFD317C0C039F4E0E7
:10322000DF0721F460E484E0A7D30FC0C03A84E054
:10323000D80721F460E485E09FD307C0C03BE4E0F9
:10324000DE0719F460E486E097D38D818F738D8358
:10325000F80195818481892B9681911198E0892BC1
:103260008D83F801408151816281738100E018E40F
:1032700028EE31E0CE0199DD9C8198609C839C8191
:1032800090619C83DF91CF911F910F9108951F92C0
:103290000F920FB60F92112408B60F9218BE09B6FE
:1032A0000F9219BE0BB60F921BBE2F933F934F93F5
:1032B0005F936F937F938F939F93AF93BF93EF939E
:1032C000FF934091240250912502E0917521F091E5
:1032D000762161E080E092E01995FF91EF91BF9136
:1032E000AF919F918F917F916F915F914F913F919E
:1032F0002F910F900BBE0F9009BE0F9008BE0F903C
:103300000FBE0F901F9018951F920F920FB60F923D
:10331000112408B60F9218BE09B60F9219BE0BB64B
:103320000F921BBE2F933F934F935F936F937F93A7
:103330008F939F93AF93BF93EF93FF9340912C0292
:1033400050912D02E0917521F091762162E080E0AC
:1033500092E01995FF91EF91BF91AF919F918F915D
:103360007F916F915F914F913F912F910F900BBE85
:103370000F9009BE0F9008BE0F900FBE0F901F90C8
:1033800018951F920F920FB60F92112408B60F9244
:1033900018BE09B60F9219BE0BB60F921BBE2F9323
:1033A0003F934F935F936F937F938F939F93AF93CD
:1033B000BF93EF93FF934091340250913502E09117
:1033C0007521F091762164E080E092E01995FF91FB
:1033D000EF91BF91AF919F918F917F916F915F918D
:1033E0004F913F912F910F900BBE0F9009BE0F9000
:1033F00008BE0F900FBE0F901F9018951F920F924E
:103400000FB60F92112408B60F9218BE09B60F928C
:1034100019BE0BB60F921BBE2F933F934F935F9332
:103420006F937F938F939F93AF93BF93EF93FF938C
:1034300040913C0250913D02E0917521F09176213E
:1034400068E080E092E01995FF91EF91BF91AF9114
:103450009F918F917F916F915F914F913F912F91AC
:103460000F900BBE0F9009BE0F9008BE0F900FBEBD
:103470000F901F9018951F920F920FB60F92112464
:1034800008B60F9218BE09B60F9219BE0BB60F926E
:103490001BBE2F933F934F935F936F937F938F93B5
:1034A0009F93AF93BF93EF93FF934091640250912A
:1034B0006502E0917321F091742161E080E492E073
:1034C0001995FF91EF91BF91AF919F918F917F914E
:1034D0006F915F914F913F912F910F900BBE0F9085
:1034E00009BE0F9008BE0F900FBE0F901F90189549
:1034F0001F920F920FB60F92112408B60F9218BEAA
:1035000009B60F9219BE0BB60F921BBE2F933F93B5
:103510004F935F936F937F938F939F93AF93BF93DB
:10352000EF93FF9340916C0250916D02E0917321F3
:10353000F091742162E080E492E01995FF91EF919F
:10354000BF91AF919F918F917F916F915F914F91BB
:103550003F912F910F900BBE0F9009BE0F9008BEA8
:103560000F900FBE0F901F9018951F920F920FB6DD
:103570000F92112408B60F9218BE09B60F9219BE09
:103580000BB60F921BBE2F933F934F935F936F9396
:103590007F938F939F93AF93BF93EF93FF9340914C
:1035A000740250917502E0917321F091742164E0EE
:1035B00080E492E01995FF91EF91BF91AF919F91B7
:1035C0008F917F916F915F914F913F912F910F90CC
:1035D0000BBE0F9009BE0F9008BE0F900FBE0F904C
:1035E0001F9018951F920F920FB60F92112408B6D4
:1035F0000F9218BE09B60F9219BE0BB60F921BBEE2
:103600002F933F934F935F936F937F938F939F93EA
:10361000AF93BF93EF93FF9340917C0250917D0253
:10362000E0917321F091742168E080E492E01995B3
:10363000FF91EF91BF91AF919F918F917F916F918A
:103640005F914F913F912F910F900BBE0F9009BE4C
:103650000F9008BE0F900FBE0F901F901895BF924D
:10366000CF92DF92EF92FF920F931F93CF93DF934E
:103670001F92CDB7DEB78C017B01811522E0920746
:1036800071F461E270E082E064D2C82ED12C60E275
:1036900070E082E05ED2DC2CCC24C82A10C08034DA
:1036A0009240D1F565E270E082E053D2C82ED12C71
:1036B00064E270E082E04DD2DC2CCC24C82A8FB7C3
:1036C0008983F894B980C8010E94C90BF8018081F0
:1036D00092E09083C486D586F70125813681F80172
:1036E000208F318FF7019281F8019283F701948145
:1036F000F8019483F7019381F8019383F701918195
:10370000F80191838170F7019081892BF801808302
:10371000C8010E94EA0BBFBE0F90DF91CF911F91AD
:103720000F91FF90EF90DF90CF90BF900895DF92C0
:10373000EF92FF920F931F93CF93DF931F92CDB71A
:10374000DEB78C017B018FB78983F894D980C801DB
:103750000E94C90BF8018081807CF7018083F80109
:10376000808D918DF70185839683F8018281F70121
:103770008283F8018481F7018483F8018381F70152
:103780008383F8018181F7018183C8010E94EA0BDC
:10379000DFBE0F90DF91CF911F910F91FF90EF90BF
:1037A000DF900895AF92BF92CF92DF92EF92FF9297
:1037B0000F931F93CF93DF931F92CDB7DEB76C01AA
:1037C000B62E7A01862F837029F4962F96959695BA
:1037D00082E002C0962F80E090FF8F5F8601005E3E
:1037E0001F4F98E0899F000D111D11248FB7898309
:1037F000F894A980C6010E94C90BF7018081F801E5
:103800008083F7018281F8018283F7018181F801C9
:103810008183B0FE04C0F7018381F8018683C6016D
:103820000E94EA0BAFBE0F90DF91CF911F910F91D5
:10383000FF90EF90DF90CF90BF90AF900895AF9240
:10384000BF92CF92DF92EF92FF920F931F93CF938D
:10385000DF931F92CDB7DEB76C01B62E7A01862FAB
:10386000837029F4962F9695969582E002C0962F44
:1038700080E090FF8F5F8601005E1F4F98E0899F78
:10388000000D111D11248FB78983F894A980C601FA
:103890000E94C90BF8018081F7018083F8018281C1
:1038A000F7018283F8018181F7018183B0FE04C0B2
:1038B000F8018681F7018383C6010E94EA0BAFBE3F
:1038C0000F90DF91CF911F910F91FF90EF90DF90BC
:1038D000CF90BF90AF900895CF93DF9300D0CDB736
:1038E000DEB78FEF80937000809371008093720039
:1038F00080937300809374008093750080937600AA
:1039000061E081E490E02FD18091510084FD20C0DE
:103910008091510081FD0DC08FB78983F894998102
:10392000E0E5F0E08081826080839FBF818181FF3C
:10393000FDCF8FB78A83F8949A81E0E5F0E088E8BC
:1039400085838081806180839FBF818184FFFDCFDB
:1039500064E080E490E007D18FB78B83F8949B817B
:10396000E0E5F0E080818E7F80839FBF2396CDBF0E
:10397000DEBFDF91CF910895CF93DF931F92CDB734
:10398000DEB79FB79983F8949981E82FF0E0E0596A
:10399000FF4F60958081682360839FBF0F90DF9108
:1039A000CF910895CF93DF931F92CDB7DEB79FB726
:1039B0009983F8949981E82FF0E0E059FF4F8081D6
:1039C000682B60839FBF0F90DF91CF910895EF9296
:1039D000FF920F931F93CF93DF937A018901EB013D
:1039E000D170232B51F0BE0181E0B3D0F701819358
:1039F0007F01219601501109B1F7DF91CF911F91FD
:103A00000F91FF90EF9008952F923F924F925F9207
:103A10006F927F928F929F92AF92BF92CF92DF92DE
:103A2000EF92FF920F931F93CF93DF9300D01F92DB
:103A3000CDB7DEB74B835C837901302E6B01232B2E
:103A400009F04FC065C05201332079F0B20181E026
:103A500080D08983B80181E07CD08A8389819A8172
:103A6000019629F02224239402C089829A82E114CB
:103A7000F10409F1AC14BD0479F481E0E81AF1080D
:103A8000EFEFCE1ADE0AEB81FC818191EB83FC83A0
:103A90008983E114F10479F0C016D10661F4F1E0F4
:103AA000EF1AF1082FEFC21AD20AEB81FC81819143
:103AB000EB83FC838A8349815A81C301B2010F944D
:103AC0000F00F2E04F0E511C611C711C0E5F1F4F66
:103AD000013022E0120709F0B6CFE114F10429F415
:103AE0000AC0212C88248A94982C01E010E0412CF3
:103AF000512C3201A8CF222059F0E0ECF1E087856B
:103B00008823ECF348E160E070E0CB010F94000003
:103B1000E0ECF1E087858823ECF34AE160E070E0B7
:103B2000CB010F9400002496CDBFDEBFDF91CF9173
:103B30001F910F91FF90EF90DF90CF90BF90AF90CB
:103B40009F908F907F906F905F904F903F902F90BD
:103B500008954091CA01E62FF72F8093CA018491FE
:103B60004093CA0108951BBEFC0128ED24BF608369
:103B70000895CF93DF93FC0120E030E0C62FD0E022
:103B8000DE01022E02C0B595A7950A94E2F7A0FDCA
:103B9000508B2F5F3F4F31962830310589F740FF1A
:103BA0000AC041FF03C0FC01658302C0FC016683BB
:103BB000FC01618302C0FC016283DF91CF91089513
:103BC00043E050E061E080E896E0D3DF43E050E07E
:103BD00062E080E896E0CDDF43E050E064E080E81A
:103BE00096E0C7DF43E050E068E080E896E0C1DFA0
:103BF00043E050E060E180E896E0BBDF43E050E066
:103C000060E280E896E0B5DF43E050E060E480E801
:103C100096E0AFDF43E050E060E880E896E0A9DF9F
:103C200040E058E161E080E696E0A3DF40E058E143
:103C300062E080E696E09DDF40E058E164E080E6E7
:103C400096E097DF40E058E168E080E696E091DF9B
:103C500040E058E160E180E696E08BDF40E058E12B
:103C600060E280E696E085DF40E058E161E080EECA
:103C700097E07FDF40E058E162E080EE97E079DF97
:103C800043E050E060E880E496E073DF43E050E01A
:103C900060E280E496E06DDF40E050E060E480E4C4
:103CA00096E067DF43E050E068E080EC97E061DF9A
:103CB00040E050E061E080E096E05BDF40E050E013
:103CC00064E080E096E055DF40E050E062E080E2B2
:103CD00096E04FDF40E057E062E080E296E049DFA7
:103CE00040E057E061E080E296E043DF41E050E0F1
:103CF00068E080E296E03DDF40E057E064E080E28B
:103D000096E037DF43E050E068E080EC97E031DF99
:103D100043E050E068E080E496E02BDF40E050E0D4
:103D200064E080E496E025DF43E050E068E080E670
:103D300096E01FDF40E050E064E080E696E019DFA7
:103D40000C94120208959A01A6E6B1E00AD12091DE
:103D500071213091722140E050E0D8D020936F2142
:103D60003093702108950F931F93CF93DF936623B1
:103D700059F08C01EC01060F111D699180EA98E061
:103D80000CD8C017D107C9F7DF91CF911F910F91C0
:103D90000895CF93DF93CDB7DEB76B97CDBFDEBF6E
:103DA0000FDF9ADDE7E7F1E21082118212821382BF
:103DB000148281E0858387E08093A20078940E943A
:103DC000940B64E570E280EA98E000D9BE01625F7E
:103DD0007F4F80E092E0ABDCAE014B5E5F4F61E075
:103DE00080E092E02CDD9F8588898F7C26E02A8BFD
:103DF000917E9F87198A8160888BBE01625F7F4FA9
:103E000080E092E02CDC63EA7EE180E092E00E94B8
:103E1000A90B1D8A1E8A8F89807F81608F8BAE01DE
:103E20004B5E5F4F61E080E092E0BCDC6FE270E0EF
:103E300082E08FDE082F10E0102F00276EE270E086
:103E400082E087DE082B009371211093722180E0BD
:103E500092E00E94090C20E030E040E050E060E297
:103E600070E0CE0101960E94A90788859985892B6B
:103E700009F0FFCF8AE090E0898F9A8FAE01475E0C
:103E80005F4F66E1CE0101960E940008C12C689444
:103E9000DD24D1F80F2EFEEEEF2EF0E2FF2EF02DF6
:103EA0000BE510E28FB78B8FF8949B8DF601808124
:103EB000846080839FBF43E450E265E0CE010196B9
:103EC0000E94DC0780916F2190917021E3E4F0E281
:103ED00023812F9322812F9321812F9320812F9350
:103EE0009F938F93FF92EF921F930F9356D06EE0A4
:103EF000C80139DFFFEF2FE483ECF1502040804010
:103F0000E1F700C00000CDBFDEBFCCCFA1E21A2E8A
:103F1000AA1BBB1BFD010DC0AA1FBB1FEE1FFF1F6D
:103F2000A217B307E407F50720F0A21BB30BE40BBD
:103F3000F50B661F771F881F991F1A9469F7609504
:103F40007095809590959B01AC01BD01CF010895BE
:103F5000EE0FFF1F881F8BBF0790F691E02D1BBE51
:103F60001994A29FB001B39FC001A39F700D811D42
:103F70001124911DB29F700D811D1124911D089572
:103F8000FB01DC0104C08D910190801921F44150A6
:103F90005040C8F7881B990B08950F931F93CF9338
:103FA000DF93CDB7DEB72E97CDBFDEBF0E891F8959
:103FB00086E08C8309831A838FEF9FE78D839E832E
:103FC000AE01465E5F4F688D798DCE0101960DD0B2
:103FD000EF81F885E00FF11F10822E96CDBFDEBF76
:103FE000DF91CF911F910F9108952F923F924F92A1
:103FF0005F926F927F928F929F92AF92BF92CF9279
:10400000DF92EF92FF920F931F93CF93DF93CDB781
:10401000DEB72B97CDBFDEBF6C017B018A01FC01AF
:1040200016821782838181FFBFC1CE0101963C01B8
:10403000F6019381F70193FD859193FF81917F01B3
:10404000882309F4ADC1853239F493FD859193FF3E
:1040500081917F01853221F4B60190E0D3D1E8CF80
:10406000912C212C312CFFE1F315D8F08B3279F013
:1040700038F4803279F08332A1F4232D20611DC001
:104080008D3261F0803369F4232D216016C0832DB9
:104090008260382EE32DE4603E2E2AC0F32DF860B6
:1040A0001DC037FC2DC020ED280F2A3040F08E3285
:1040B000B9F436FC75C1232D2064322E19C036FEAA
:1040C00006C08AE0989E200D1124922E11C0EAE0CD
:1040D0002E9E200D1124222EF32DF0623F2E08C0BB
:1040E0008C3621F4832D8068382E02C0883641F446
:1040F000F70193FD859193FF81917F018111B3CFEA
:10410000982F9F7D9554933028F40C5F1F4F9FE3A9
:1041100099830DC0833631F0833771F0833509F010
:1041200055C020C0F801808189830E5F1F4F88240D
:104130008394912C530112C02801F2E04F0E511CC0
:10414000F801A080B18036FE03C0692D70E002C086
:104150006FEF7FEFC5014BD14C018201F32DFF774B
:104160003F2E15C0280122E0420E511CF801A0800C
:10417000B18036FE03C0692D70E002C06FEF7FEFA3
:10418000C5012AD14C01F32DF0683F2E820133FC8A
:1041900019C0822D90E088169906A0F4B60180E23D
:1041A00090E030D12A94F5CFF50137FC859137FEA8
:1041B00081915F01B60190E025D121102A9421E080
:1041C000821A91088114910479F7E1C0843611F0C4
:1041D000893639F5F80137FE07C060817181828127
:1041E00093810C5F1F4F08C060817181072E000C06
:1041F000880B990B0E5F1F4FF32DFF763F2E97FF15
:1042000009C090958095709561957F4F8F4F9F4F16
:10421000F0683F2E2AE030E0A30130D1882E8618C6
:1042200044C0853731F4232D2F7EB22E2AE030E0B2
:1042300025C0932D997FB92E8F36C1F018F488359B
:1042400079F0AEC0803719F0883721F0A9C0E92F86
:10425000E061BE2EB4FE0DC0FB2DF460BF2E09C080
:1042600034FE0AC0292F2660B22E06C028E030E0B6
:1042700005C020E130E002C020E132E0F801B7FEE5
:1042800007C060817181828193810C5F1F4F06C0DE
:104290006081718180E090E00E5F1F4FA301EED03E
:1042A000882E8618FB2DFF773F2E36FE0DC0232D5E
:1042B0002E7FA22E891458F434FE0BC032FC09C0A4
:1042C000832D8E7EA82E05C0B82CA32C03C0B82C3D
:1042D00001C0B92CA4FE0FC0FE01E80DF11D8081C4
:1042E000803321F49A2D997EA92E09C0A2FE06C022
:1042F000B394B39404C08A2D867809F0B394A3FCD8
:1043000010C0A0FE06C0B21480F4280C922C9B189A
:104310000DC0B21458F4B60180E290E073D0B394AB
:10432000F8CFB21418F42B1802C0982C212CA4FE3C
:104330000FC0B60180E390E065D0A2FE16C0A1FCDC
:1043400003C088E790E002C088E590E0B6010CC0A9
:104350008A2D867851F0A1FE02C08BE201C080E276
:10436000A7FC8DE2B60190E04DD0891430F4B6017F
:1043700080E390E047D09A94F8CF8A94F301E80D57
:10438000F11D8081B60190E03DD08110F6CF222052
:1043900009F44ECEB60180E290E034D02A94F7CFF3
:1043A000F6018681978102C08FEF9FEF2B96CDBFDC
:1043B000DEBFDF91CF911F910F91FF90EF90DF90C3
:1043C000CF90BF90AF909F908F907F906F905F90B5
:1043D0004F903F902F900895FC01059061507040E0
:1043E0000110D8F7809590958E0F9F1F0895FC01BE
:1043F0006150704001900110D8F7809590958E0F14
:104400009F1F08950F931F93CF93DF93FB01238189
:1044100021FD03C08FEF9FEF2CC022FF16C0468105
:104420005781248135814217530744F4A081B1811B
:104430009D012F5F3F4F208331838C9326813781ED
:104440002F5F3F4F2683378314C08B01EC01FB01A4
:104450000084F185E02D1995892BE1F6D801169697
:104460008D919C911797019616968D939C93179713
:10447000CE01DF91CF911F910F910895FA01AA27E4
:10448000283051F1203181F1E8946F936E7F6E5F97
:104490007F4F8F4F9F4FAF4FB1E03ED0B4E03CD045
:1044A000670F781F891F9A1FA11D680F791F8A1F28
:1044B000911DA11D6A0F711D811D911DA11D20D08F
:1044C00009F468943F912AE0269F11243019305D49
:1044D0003193DEF6CF010895462F4770405D41933A
:1044E000B3E00FD0C9F7F6CF462F4F70405D4A3387
:1044F00018F0495D31FD4052419302D0A9F7EACF4F
:10450000B4E0A6959795879577956795BA95C9F77D
:1045100000976105710508959B01AC010A2E069470
:104520005795479537952795BA95C9F7620F731F29
:0C453000841F951FA01D0895F894FFCF74
:10453C00000000000000000000000000000000006F
:10454C000000000001A8070000A8070000A8070051
:10455C000001B00438000000002A000000FFFF003A
:10456C00002001FF00FF00FF000000000000000021
:10457C0000F3060000000000000000000000000036
:10458C0000000001802500000300005F3030303057
:10459C005F30303030305F0A0D00534648373737C4
:1045AC003020416D6269656E74204C6967687420B7
:1045BC00262050726F78696D6974792053656E731B
:1045CC006F7200B30244041F026F06000000000962
:1045DC00000000000000000003006A200000090138
:1045EC0000080200070500060A00050E000414006E
:1045FC0003210002320001640000000004010003EA
:10460C000200020500010A00000500000A00011466
:10461C000002320003640004960005C800065F5BCC
:0E462C002534645D5F5B2535645D5F0A0D001B
:020000022000DC
:100000009BB78BBFFB018091CA014093CA017DE978
:1000100070933400E8958093CA019BBF08952091A6
:10002000CF0127FDFCCF9BB78BBFFB018091CA019D
:1000300023E22093CA010A01E89511248093CA01A2
:040040009BBF0895C5
:00000001FF
