S00F00004553444C6162312E73726563F9
S1130000F9C000001DC100001BC1000019C100009F
S113001017C1000015C1000013C1000011C1000088
S11300200FC100000DC100000BC1000009C1000098
S113003007C1000005C100008CC20000C2C200005C
S1130040F8C200002EC3000064C300009AC300007D
S1130050D0C3000006C400003CC4000072C4000009
S1130060EFC00000EDC00000EBC00000E9C00000DC
S1130070E7C00000E5C00000E3C00000E1C00000EC
S1130080DFC00000DDC00000DBC00000D9C00000FC
S1130090D7C00000D5C00000D3C000000C94DE0E11
S11300A00C941B0F0C94580F0C94950FC9C00000AE
S11300B0C7C00000C5C00000C3C00000AAC600003D
S11300C0E0C6000016C700004CC7000082C700004D
S11300D0B8C70000EEC700000C9491080C94C9083E
S11300E00C940109ADC00000ABC00000A9C0000021
S11300F0A7C00000A5C00000A3C00000A1C000006C
S11301009FC000009DC000009BC0000099C000007B
S113011097C0000095C0000093C000000C94EA0D45
S11301200C94270E0C94640E0C94A10E89C000004C
S113013087C000003EC4000074C40000AAC40000CC
S1130140E0C4000016C500004CC5000082C50000D4
S1130150B8C50000EEC5000024C6000071C0000050
S11301606FC000006DC000006BC0000069C00000DB
S113017067C0000065C0000063C0000061C00000EB
S11301805FC000005DC000005BC0000059C00000FB
S113019057C0000055C0000053C0000051C000000B
S11301A04FC000004DC000004BC0000049C000001B
S11301B00C9439090C9471090C94A9090C94E10963
S11301C00C94190A0C94510A0C94890A0C94C10ACF
S11301D00C94F90A0C94310B33C0000031C00000B8
S11301E02FC000002DC000002BC0000029C000005B
S11301F027C0000011241FBECFEFCDBFDFE3DEBF59
S113020000E00CBF18BE19BE1ABE1BBE10E2A0E06F
S1130210B0E2EAECFEE200E00BBF02C007900D92F0
S1130220A636B107D9F71BBE20E2A6E6B0E201C0AC
S11302301D92AD3CB207E1F70E94E1120C946317E2
S1130240DFCECF93DF931F92CDB7DEB72FB72983CD
S1130250F8944981282F392F211582E0380729F491
S11302606093C4207093C52007C02034324021F429
S11302706093C2207093C3204FBF0F90DF91CF9142
S11302800895811522E0920769F48091672091E036
S1130290980F90936720811114C062E081E00C9460
S11302A01F1108958034924061F48091662091E09A
S11302B0980F90936620811104C062E082E00C9450
S11302C01F110895811522E0920761F4809167203F
S11302D0815080936720811113C062E081E00C9407
S11302E0351108958034924059F4809166208150EC
S11302F080936620811104C062E082E00C94351181
S11303000895EF92FF921F93CF93DF931F921F9252
S1130310CDB7DEB77C018FB78983F8941981C70103
S1130320B0DFF7018081816080831FBF8091C72087
S11303308F3F09F4FFCF8FB78A83F8949A81E6EC54
S1130340F0E281818F5F81839FBF0F900F90DF91D7
S1130350CF911F91FF90EF900895811523E09207AC
S113036069F48091692091E0980F9093692081113C
S113037014C064E081E00C941F110895803293400E
S113038061F48091682091E0980F90936820811126
S113039004C064E082E00C941F110895811523E0E9
S11303A0920761F4809169208150809369208111C2
S11303B013C064E081E00C943511089580329340B9
S11303C059F480916820815080936820811104C081
S11303D064E082E00C9435110895EF92FF921F932C
S11303E0CF93DF931F921F92CDB7DEB72FB7298328
S11303F0F89419812091C7202F3F09F4FFCF7C0185
S11304008FB78A83F8949A81E6ECF0E281818F5F5A
S113041081839FBFC701A1DFF70180818160808351
S11304201FBF0F900F90DF91CF911F91FF90EF901E
S11304300895BF92CF92DF92EF92FF920F931F9392
S1130440CF93DF931F92CDB7DEB78C017B0181156B
S113045023E0920769F461E370E082E00E944A11AC
S1130460B82E60E370E082E00E944A11C82E0FC0EB
S11304708032934081F563E370E082E00E944A1188
S1130480B82E62E370E082E00E944A11C82E8FB752
S11304908983F894D980C80160DFF80180811082D3
S11304A0F7019181F8019183F7019281F801928318
S11304B0F7019381F8019383F7019481F801948300
S11304C0B086C1868170F7019081892BF801808301
S11304D0C80164DFDFBE0F90DF91CF911F910F91B0
S11304E0FF90EF90DF90CF90BF900895DF92EF924E
S11304F0FF920F931F93CF93DF931F92CDB7DEB775
S11305008C017B018FB78983F894D980C80125DFDA
S1130510F80180818E7FF7018083F8018181F701E2
S11305208183F8018281F7018283F8018381F701D5
S11305308383F8018481F7018483C8012FDFDFBE40
S11305400F90DF91CF911F910F91FF90EF90DF906B
S113055008951F920F920FB60F92112408B60F92AE
S113056018BE09B60F9219BE0BB60F921BBE2F937D
S11305703F934F935F936F937F938F939F93AF9327
S1130580BF93EF93FF93E091B820F091B920309797
S113059009F01995FF91EF91BF91AF919F918F91C0
S11305A07F916F915F914F913F912F910F900BBE6F
S11305B00F9009BE0F9008BE0F900FBE0F901F90B2
S11305C018951F920F920FB60F92112408B60F922E
S11305D018BE09B60F9219BE0BB60F921BBE2F930D
S11305E03F934F935F936F937F938F939F93AF93B7
S11305F0BF93EF93FF93E091B620F091B72030972B
S113060009F01995FF91EF91BF91AF919F918F914F
S11306107F916F915F914F913F912F910F900BBEFE
S11306200F9009BE0F9008BE0F900FBE0F901F9041
S113063018951F920F920FB60F92112408B60F92BD
S113064018BE09B60F9219BE0BB60F921BBE2F939C
S11306503F934F935F936F937F938F939F93AF9346
S1130660BF93EF93FF93E091B420F091B5203097BE
S113067009F01995FF91EF91BF91AF919F918F91DF
S11306807F916F915F914F913F912F910F900BBE8E
S11306900F9009BE0F9008BE0F900FBE0F901F90D1
S11306A018951F920F920FB60F92112408B60F924D
S11306B018BE09B60F9219BE0BB60F921BBE2F932C
S11306C03F934F935F936F937F938F939F93AF93D6
S11306D0BF93EF93FF93E091B220F091B320309752
S11306E009F01995FF91EF91BF91AF919F918F916F
S11306F07F916F915F914F913F912F910F900BBE1E
S11307000F9009BE0F9008BE0F900FBE0F901F9060
S113071018951F920F920FB60F92112408B60F92DC
S113072018BE09B60F9219BE0BB60F921BBE2F93BB
S11307303F934F935F936F937F938F939F93AF9365
S1130740BF93EF93FF93E091B020F091B1203097E5
S113075009F01995FF91EF91BF91AF919F918F91FE
S11307607F916F915F914F913F912F910F900BBEAD
S11307700F9009BE0F9008BE0F900FBE0F901F90F0
S113078018951F920F920FB60F92112408B60F926C
S113079018BE09B60F9219BE0BB60F921BBE2F934B
S11307A03F934F935F936F937F938F939F93AF93F5
S11307B0BF93EF93FF93E091AE20F091AF20309779
S11307C009F01995FF91EF91BF91AF919F918F918E
S11307D07F916F915F914F913F912F910F900BBE3D
S11307E00F9009BE0F9008BE0F900FBE0F901F9080
S11307F018951F920F920FB60F92112408B60F92FC
S113080018BE09B60F9219BE0BB60F921BBE2F93DA
S11308103F934F935F936F937F938F939F93AF9384
S1130820BF93EF93FF93E091AC20F091AD2030970C
S113083009F01995FF91EF91BF91AF919F918F911D
S11308407F916F915F914F913F912F910F900BBECC
S11308500F9009BE0F9008BE0F900FBE0F901F900F
S113086018951F920F920FB60F92112408B60F928B
S113087018BE09B60F9219BE0BB60F921BBE2F936A
S11308803F934F935F936F937F938F939F93AF9314
S1130890BF93EF93FF93E091AA20F091AB203097A0
S11308A009F01995FF91EF91BF91AF919F918F91AD
S11308B07F916F915F914F913F912F910F900BBE5C
S11308C00F9009BE0F9008BE0F900FBE0F901F909F
S11308D018951F920F920FB60F92112408B60F921B
S11308E018BE09B60F9219BE0BB60F921BBE2F93FA
S11308F03F934F935F936F937F938F939F93AF93A4
S1130900BF93EF93FF93E091A820F091A920309733
S113091009F01995FF91EF91BF91AF919F918F913C
S11309207F916F915F914F913F912F910F900BBEEB
S11309300F9009BE0F9008BE0F900FBE0F901F902E
S113094018951F920F920FB60F92112408B60F92AA
S113095018BE09B60F9219BE0BB60F921BBE2F9389
S11309603F934F935F936F937F938F939F93AF9333
S1130970BF93EF93FF93E091A620F091A7203097C7
S113098009F01995FF91EF91BF91AF919F918F91CC
S11309907F916F915F914F913F912F910F900BBE7B
S11309A00F9009BE0F9008BE0F900FBE0F901F90BE
S11309B018951F920F920FB60F92112408B60F923A
S11309C018BE09B60F9219BE0BB60F921BBE2F9319
S11309D03F934F935F936F937F938F939F93AF93C3
S11309E0BF93EF93FF93E091A420F091A52030975B
S11309F009F01995FF91EF91BF91AF919F918F915C
S1130A007F916F915F914F913F912F910F900BBE0A
S1130A100F9009BE0F9008BE0F900FBE0F901F904D
S1130A2018951F920F920FB60F92112408B60F92C9
S1130A3018BE09B60F9219BE0BB60F921BBE2F93A8
S1130A403F934F935F936F937F938F939F93AF9352
S1130A50BF93EF93FF93E091A220F091A3203097EE
S1130A6009F01995FF91EF91BF91AF919F918F91EB
S1130A707F916F915F914F913F912F910F900BBE9A
S1130A800F9009BE0F9008BE0F900FBE0F901F90DD
S1130A9018951F920F920FB60F92112408B60F9259
S1130AA018BE09B60F9219BE0BB60F921BBE2F9338
S1130AB03F934F935F936F937F938F939F93AF93E2
S1130AC0BF93EF93FF93E091A020F091A120309782
S1130AD009F01995FF91EF91BF91AF919F918F917B
S1130AE07F916F915F914F913F912F910F900BBE2A
S1130AF00F9009BE0F9008BE0F900FBE0F901F906D
S1130B0018951F920F920FB60F92112408B60F92E8
S1130B1018BE09B60F9219BE0BB60F921BBE2F93C7
S1130B203F934F935F936F937F938F939F93AF9371
S1130B30BF93EF93FF93E0919E20F0919F20309715
S1130B4009F01995FF91EF91BF91AF919F918F910A
S1130B507F916F915F914F913F912F910F900BBEB9
S1130B600F9009BE0F9008BE0F900FBE0F901F90FC
S1130B7018951F920F920FB60F92112408B60F9278
S1130B8018BE09B60F9219BE0BB60F921BBE2F9357
S1130B903F934F935F936F937F938F939F93AF9301
S1130BA0BF93EF93FF93E0919C20F0919D203097A9
S1130BB009F01995FF91EF91BF91AF919F918F919A
S1130BC07F916F915F914F913F912F910F900BBE49
S1130BD00F9009BE0F9008BE0F900FBE0F901F908C
S1130BE018951F920F920FB60F92112408B60F9208
S1130BF018BE09B60F9219BE0BB60F921BBE2F93E7
S1130C003F934F935F936F937F938F939F93AF9390
S1130C10BF93EF93FF93E0919A20F0919B2030973C
S1130C2009F01995FF91EF91BF91AF919F918F9129
S1130C307F916F915F914F913F912F910F900BBED8
S1130C400F9009BE0F9008BE0F900FBE0F901F901B
S1130C5018951F920F920FB60F92112408B60F9297
S1130C6018BE09B60F9219BE0BB60F921BBE2F9376
S1130C703F934F935F936F937F938F939F93AF9320
S1130C80BF93EF93FF93E0919820F09199203097D0
S1130C9009F01995FF91EF91BF91AF919F918F91B9
S1130CA07F916F915F914F913F912F910F900BBE68
S1130CB00F9009BE0F9008BE0F900FBE0F901F90AB
S1130CC018951F920F920FB60F92112408B60F9227
S1130CD018BE09B60F9219BE0BB60F921BBE2F9306
S1130CE03F934F935F936F937F938F939F93AF93B0
S1130CF0BF93EF93FF93E0919620F0919720309764
S1130D0009F01995FF91EF91BF91AF919F918F9148
S1130D107F916F915F914F913F912F910F900BBEF7
S1130D200F9009BE0F9008BE0F900FBE0F901F903A
S1130D3018951F920F920FB60F92112408B60F92B6
S1130D4018BE09B60F9219BE0BB60F921BBE2F9395
S1130D503F934F935F936F937F938F939F93AF933F
S1130D60BF93EF93FF93E0919420F09195203097F7
S1130D7009F01995FF91EF91BF91AF919F918F91D8
S1130D807F916F915F914F913F912F910F900BBE87
S1130D900F9009BE0F9008BE0F900FBE0F901F90CA
S1130DA018951F920F920FB60F92112408B60F9246
S1130DB018BE09B60F9219BE0BB60F921BBE2F9325
S1130DC03F934F935F936F937F938F939F93AF93CF
S1130DD0BF93EF93FF93E0919220F091932030978B
S1130DE009F01995FF91EF91BF91AF919F918F9168
S1130DF07F916F915F914F913F912F910F900BBE17
S1130E000F9009BE0F9008BE0F900FBE0F901F9059
S1130E1018951F920F920FB60F92112408B60F92D5
S1130E2018BE09B60F9219BE0BB60F921BBE2F93B4
S1130E303F934F935F936F937F938F939F93AF935E
S1130E40BF93EF93FF93E0919020F091912030971E
S1130E5009F01995FF91EF91BF91AF919F918F91F7
S1130E607F916F915F914F913F912F910F900BBEA6
S1130E700F9009BE0F9008BE0F900FBE0F901F90E9
S1130E8018951F920F920FB60F92112408B60F9265
S1130E9018BE09B60F9219BE0BB60F921BBE2F9344
S1130EA03F934F935F936F937F938F939F93AF93EE
S1130EB0BF93EF93FF93E0918E20F0918F203097B2
S1130EC009F01995FF91EF91BF91AF919F918F9187
S1130ED07F916F915F914F913F912F910F900BBE36
S1130EE00F9009BE0F9008BE0F900FBE0F901F9079
S1130EF018951F920F920FB60F92112408B60F92F5
S1130F0018BE09B60F9219BE0BB60F921BBE2F93D3
S1130F103F934F935F936F937F938F939F93AF937D
S1130F20BF93EF93FF93E0918C20F0918D20309745
S1130F3009F01995FF91EF91BF91AF919F918F9116
S1130F407F916F915F914F913F912F910F900BBEC5
S1130F500F9009BE0F9008BE0F900FBE0F901F9008
S1130F6018951F920F920FB60F92112408B60F9284
S1130F7018BE09B60F9219BE0BB60F921BBE2F9363
S1130F803F934F935F936F937F938F939F93AF930D
S1130F90BF93EF93FF93E0918A20F0918B203097D9
S1130FA009F01995FF91EF91BF91AF919F918F91A6
S1130FB07F916F915F914F913F912F910F900BBE55
S1130FC00F9009BE0F9008BE0F900FBE0F901F9098
S1130FD018951F920F920FB60F92112408B60F9214
S1130FE018BE09B60F9219BE0BB60F921BBE2F93F3
S1130FF03F934F935F936F937F938F939F93AF939D
S1131000BF93EF93FF93E0918820F091892030976C
S113101009F01995FF91EF91BF91AF919F918F9135
S11310207F916F915F914F913F912F910F900BBEE4
S11310300F9009BE0F9008BE0F900FBE0F901F9027
S113104018951F920F920FB60F92112408B60F92A3
S113105018BE09B60F9219BE0BB60F921BBE2F9382
S11310603F934F935F936F937F938F939F93AF932C
S1131070BF93EF93FF93E0918620F0918720309700
S113108009F01995FF91EF91BF91AF919F918F91C5
S11310907F916F915F914F913F912F910F900BBE74
S11310A00F9009BE0F9008BE0F900FBE0F901F90B7
S11310B018951F920F920FB60F92112408B60F9233
S11310C018BE09B60F9219BE0BB60F921BBE2F9312
S11310D03F934F935F936F937F938F939F93AF93BC
S11310E0BF93EF93FF93E0918420F0918520309794
S11310F009F01995FF91EF91BF91AF919F918F9155
S11311007F916F915F914F913F912F910F900BBE03
S11311100F9009BE0F9008BE0F900FBE0F901F9046
S113112018951F920F920FB60F92112408B60F92C2
S113113018BE09B60F9219BE0BB60F921BBE2F93A1
S11311403F934F935F936F937F938F939F93AF934B
S1131150BF93EF93FF93E0918220F0918320309727
S113116009F01995FF91EF91BF91AF919F918F91E4
S11311707F916F915F914F913F912F910F900BBE93
S11311800F9009BE0F9008BE0F900FBE0F901F90D6
S113119018951F920F920FB60F92112408B60F9252
S11311A018BE09B60F9219BE0BB60F921BBE2F9331
S11311B03F934F935F936F937F938F939F93AF93DB
S11311C0BF93EF93FF93E0918020F09181203097BB
S11311D009F01995FF91EF91BF91AF919F918F9174
S11311E07F916F915F914F913F912F910F900BBE23
S11311F00F9009BE0F9008BE0F900FBE0F901F9066
S113120018951F920F920FB60F92112408B60F92E1
S113121018BE09B60F9219BE0BB60F921BBE2F93C0
S11312203F934F935F936F937F938F939F93AF936A
S1131230BF93EF93FF93E0917E20F0917F2030974E
S113124009F01995FF91EF91BF91AF919F918F9103
S11312507F916F915F914F913F912F910F900BBEB2
S11312600F9009BE0F9008BE0F900FBE0F901F90F5
S113127018951F920F920FB60F92112408B60F9271
S113128018BE09B60F9219BE0BB60F921BBE2F9350
S11312903F934F935F936F937F938F939F93AF93FA
S11312A0BF93EF93FF93E0917C20F0917D203097E2
S11312B009F01995FF91EF91BF91AF919F918F9193
S11312C07F916F915F914F913F912F910F900BBE42
S11312D00F9009BE0F9008BE0F900FBE0F901F9085
S11312E018951F920F920FB60F92112408B60F9201
S11312F018BE09B60F9219BE0BB60F921BBE2F93E0
S11313003F934F935F936F937F938F939F93AF9389
S1131310BF93EF93FF93E0917A20F0917B20309775
S113132009F01995FF91EF91BF91AF919F918F9122
S11313307F916F915F914F913F912F910F900BBED1
S11313400F9009BE0F9008BE0F900FBE0F901F9014
S113135018951F920F920FB60F92112408B60F9290
S113136018BE09B60F9219BE0BB60F921BBE2F936F
S11313703F934F935F936F937F938F939F93AF9319
S1131380BF93EF93FF93E0917820F0917920309709
S113139009F01995FF91EF91BF91AF919F918F91B2
S11313A07F916F915F914F913F912F910F900BBE61
S11313B00F9009BE0F9008BE0F900FBE0F901F90A4
S11313C018951F920F920FB60F92112408B60F9220
S11313D018BE09B60F9219BE0BB60F921BBE2F93FF
S11313E03F934F935F936F937F938F939F93AF93A9
S11313F0BF93EF93FF93E0917620F091772030979D
S113140009F01995FF91EF91BF91AF919F918F9141
S11314107F916F915F914F913F912F910F900BBEF0
S11314200F9009BE0F9008BE0F900FBE0F901F9033
S113143018951F920F920FB60F92112408B60F92AF
S113144018BE09B60F9219BE0BB60F921BBE2F938E
S11314503F934F935F936F937F938F939F93AF9338
S1131460BF93EF93FF93E0917420F0917520309730
S113147009F01995FF91EF91BF91AF919F918F91D1
S11314807F916F915F914F913F912F910F900BBE80
S11314900F9009BE0F9008BE0F900FBE0F901F90C3
S11314A018951F920F920FB60F92112408B60F923F
S11314B018BE09B60F9219BE0BB60F921BBE2F931E
S11314C03F934F935F936F937F938F939F93AF93C8
S11314D0BF93EF93FF93E0917220F09173203097C4
S11314E009F01995FF91EF91BF91AF919F918F9161
S11314F07F916F915F914F913F912F910F900BBE10
S11315000F9009BE0F9008BE0F900FBE0F901F9052
S113151018951F920F920FB60F92112408B60F92CE
S113152018BE09B60F9219BE0BB60F921BBE2F93AD
S11315303F934F935F936F937F938F939F93AF9357
S1131540BF93EF93FF93E0917020F0917120309757
S113155009F01995FF91EF91BF91AF919F918F91F0
S11315607F916F915F914F913F912F910F900BBE9F
S11315700F9009BE0F9008BE0F900FBE0F901F90E2
S113158018951F920F920FB60F92112408B60F925E
S113159018BE09B60F9219BE0BB60F921BBE2F933D
S11315A03F934F935F936F937F938F939F93AF93E7
S11315B0BF93EF93FF93E0916E20F0916F203097EB
S11315C009F01995FF91EF91BF91AF919F918F9180
S11315D07F916F915F914F913F912F910F900BBE2F
S11315E00F9009BE0F9008BE0F900FBE0F901F9072
S11315F018951F920F920FB60F92112408B60F92EE
S113160018BE09B60F9219BE0BB60F921BBE2F93CC
S11316103F934F935F936F937F938F939F93AF9376
S1131620BF93EF93FF93E0916C20F0916D2030977E
S113163009F01995FF91EF91BF91AF919F918F910F
S11316407F916F915F914F913F912F910F900BBEBE
S11316500F9009BE0F9008BE0F900FBE0F901F9001
S113166018951F920F920FB60F92112408B60F927D
S113167018BE09B60F9219BE0BB60F921BBE2F935C
S11316803F934F935F936F937F938F939F93AF9306
S1131690BF93EF93FF93E0916A20F0916B20309712
S11316A009F01995FF91EF91BF91AF919F918F919F
S11316B07F916F915F914F913F912F910F900BBE4E
S11316C00F9009BE0F9008BE0F900FBE0F901F9091
S11316D01895FC01918195FFFDCF608380E090E037
S11316E00895FC0191819923ECF7808108954F922C
S11316F05F926F927F928F929F92AF92BF92EF927E
S1131700FF920F931F93CF937C014A015B01280141
S11317103901FC01848182FF16C0D901C801689493
S113172012F8B695A795979587951694D1F7B901B0
S1131730A801032E36E176956795579547953A9516
S1131740D1F7302D15C0D901C801689413F8B695A6
S1131750A795979587951694D1F7B901A801032EFB
S113176037E176956795579547953A95D1F7302D9A
S113177088159905AA05BB0508F4A5C08416950625
S1131780A606B70608F4A1C0F701848182FD04C04F
S1131790880C991CAA1CBB1CC301B201A5019401AD
S11317A00E944F142F3F31054105510508F48FC0A5
S11317B08FEF90E0A0E0B0E0C9EF05C0281739072B
S11317C04A075B0758F0880F991FAA1FBB1FCD3F1C
S11317D00CF48160CF5FC73089F74FC0CC230CF085
S11317E04CC0D501C401880F991FAA1FBB1F880FC5
S11317F0991FAA1FBB1F880F991FAA1FBB1F481A36
S1131800590A6A0A7B0ACE3FF4F48DEF9FEF8C1BD2
S11318109109C7FD939504C0440C551C661C771CA4
S11318208A95D2F7D501C401B695A7959795879562
S1131830BC01CD01640D751D861D971DA501940184
S11318400E944F1436C083E08C0FA501940104C09C
S1131850220F331F441F551F8A95D2F7DA01C9019D
S1131860B695A79597958795BC01CD01640D751D17
S1131870861D971D0E944F141CC083E08C0FA50188
S1131880940104C0220F331F441F551F8A95D2F7B9
S1131890DA01C901B695A79597958795BC01CD0145
S11318A0640D751D861D971DFAD721503109410914
S11318B05109832F8F70C295C07FC82BF701C7834E
S11318C0268381E018C080E016C080E014C0D501F2
S11318D0C401880F991FAA1FBB1F880F991FAA1F35
S11318E0BB1F880F991FAA1FBB1F481A590A6A0AEF
S11318F07B0AC9EF8ACFCF911F910F91FF90EF9090
S1131900BF90AF909F908F907F906F905F904F901B
S113191008950F931F93CF93DF93EC018B010097EE
S113192009F436C1803C910521F460E180E087D45C
S11319302FC1C03484E0D80721F468E080E07FD46C
S113194027C1C115E4E0DE0721F464E080E077D428
S11319501FC1C038F1E0DF0721F462E080E06FD4FA
S113196017C1C11581E0D80721F461E080E067D494
S11319700FC1C038E3E0DE0721F461E081E05FD409
S113198007C1C039F3E0DF0721F461E082E057D4F6
S1131990FFC0C11582E0D80721F462E081E04FD492
S11319A0F7C0C034E2E0DE0721F462E082E047D40D
S11319B0EFC0C115F3E0DF0721F464E081E03FD418
S11319C0E7C0C03283E0D80721F464E082E037D472
S11319D0DFC0C115E8E0DE0721F461E083E02FD425
S11319E0D7C0C115F9E0DF0721F461E084E027D412
S11319F0CFC0C1158AE0D80721F461E085E01FD487
S1131A00C7C0C115EBE0DE0721F461E086E017D41E
S1131A10BFC0C034F8E0DF0721F462E083E00FD4F4
S1131A20B7C0C03489E0D80721F462E084E007D469
S1131A30AFC0C034EAE0DE0721F462E085E0FFD302
S1131A40A7C0C034FBE0DF0721F462E086E0F7D3EF
S1131A509FC0C03988E0D80721F464E083E0EFD365
S1131A6097C0C039E9E0DE0721F464E084E0E7D3FD
S1131A708FC0C039FAE0DF0721F464E085E0DFD3EA
S1131A8087C0C0398BE0D80721F464E086E0D7D35F
S1131A907FC0C03CE8E0DE0721F468E083E0CFD3F8
S1131AA077C0C03CF9E0DF0721F468E084E0C7D3E5
S1131AB06FC0C03C8AE0D80721F468E085E0BFD35A
S1131AC067C0C03CEBE0DE0721F468E086E0B7D3F2
S1131AD05FC0C03AF8E0DF0721F460E183E0AFD3F0
S1131AE057C0C03A89E0D80721F460E184E0A7D365
S1131AF04FC0C03AEAE0DE0721F460E185E09FD3FD
S1131B0047C0C03AFBE0DF0721F460E186E097D3E9
S1131B103FC0C03B88E0D80721F460E283E08FD364
S1131B2037C0C03BE9E0DE0721F460E284E087D3FC
S1131B302FC0C03BFAE0DF0721F460E285E07FD3E9
S1131B4027C0C03B8BE0D80721F460E286E077D35E
S1131B501FC0C038E4E0DE0721F460E483E06FD303
S1131B6017C0C039F4E0DF0721F460E484E067D3F0
S1131B700FC0C03A84E0D80721F460E485E05FD365
S1131B8007C0C03BE4E0DE0719F460E486E057D305
S1131B908D818F738D83F80195818481892B968142
S1131BA0911198E0892B8D83F801408151816281E4
S1131BB0738100E814E82EE130E0CE0198DD9C81C9
S1131BC098609C839C8190619C83DF91CF911F914D
S1131BD00F9108951F920F920FB60F92112408B619
S1131BE00F9218BE09B60F9219BE0BB60F921BBE08
S1131BF02F933F934F935F936F937F938F939F9311
S1131C00AF93BF93EF93FF93409124025091250229
S1131C10E091C420F091C52061E080E092E0199544
S1131C20FF91EF91BF91AF919F918F917F916F91B0
S1131C305F914F913F912F910F900BBE0F9009BE72
S1131C400F9008BE0F900FBE0F901F9018951F9213
S1131C500F920FB60F92112408B60F9218BE09B650
S1131C600F9219BE0BB60F921BBE2F933F934F9347
S1131C705F936F937F938F939F93AF93BF93EF93F0
S1131C80FF9340912C0250912D02E091C420F091D9
S1131C90C52062E080E092E01995FF91EF91BF9139
S1131CA0AF919F918F917F916F915F914F913F91F0
S1131CB02F910F900BBE0F9009BE0F9008BE0F908E
S1131CC00FBE0F901F9018951F920F920FB60F9290
S1131CD0112408B60F9218BE09B60F9219BE0BB69E
S1131CE00F921BBE2F933F934F935F936F937F93FA
S1131CF08F939F93AF93BF93EF93FF9340913402DD
S1131D0050913502E091C420F091C52064E080E058
S1131D1092E01995FF91EF91BF91AF919F918F91AF
S1131D207F916F915F914F913F912F910F900BBED7
S1131D300F9009BE0F9008BE0F900FBE0F901F901A
S1131D4018951F920F920FB60F92112408B60F9296
S1131D5018BE09B60F9219BE0BB60F921BBE2F9375
S1131D603F934F935F936F937F938F939F93AF931F
S1131D70BF93EF93FF9340913C0250913D02E09159
S1131D80C420F091C52068E080E092E01995FF91AD
S1131D90EF91BF91AF919F918F917F916F915F91DF
S1131DA04F913F912F910F900BBE0F9009BE0F9052
S1131DB008BE0F900FBE0F901F9018951F920F92A0
S1131DC00FB60F92112408B60F9218BE09B60F92DF
S1131DD019BE0BB60F921BBE2F933F934F935F9385
S1131DE06F937F938F939F93AF93BF93EF93FF93DF
S1131DF04091640250916502E091C220F091C320A9
S1131E0061E080E492E01995FF91EF91BF91AF9169
S1131E109F918F917F916F915F914F913F912F91FE
S1131E200F900BBE0F9009BE0F9008BE0F900FBE0F
S1131E300F901F9018951F920F920FB60F921124B6
S1131E4008B60F9218BE09B60F9219BE0BB60F92C0
S1131E501BBE2F933F934F935F936F937F938F9307
S1131E609F93AF93BF93EF93FF9340916C02509174
S1131E706D02E091C220F091C32062E080E492E020
S1131E801995FF91EF91BF91AF919F918F917F91A0
S1131E906F915F914F913F912F910F900BBE0F90D7
S1131EA009BE0F9008BE0F900FBE0F901F9018959B
S1131EB01F920F920FB60F92112408B60F9218BEFC
S1131EC009B60F9219BE0BB60F921BBE2F933F9308
S1131ED04F935F936F937F938F939F93AF93BF932E
S1131EE0EF93FF934091740250917502E091C220E8
S1131EF0F091C32064E080E492E01995FF91EF91A2
S1131F00BF91AF919F918F917F916F915F914F910D
S1131F103F912F910F900BBE0F9009BE0F9008BEFA
S1131F200F900FBE0F901F9018951F920F920FB62F
S1131F300F92112408B60F9218BE09B60F9219BE5B
S1131F400BB60F921BBE2F933F934F935F936F93E8
S1131F507F938F939F93AF93BF93EF93FF9340919E
S1131F607C0250917D02E091C220F091C32068E090
S1131F7080E492E01995FF91EF91BF91AF919F9109
S1131F808F917F916F915F914F913F912F910F901E
S1131F900BBE0F9009BE0F9008BE0F900FBE0F909E
S1131FA01F901895BF92CF92DF92EF92FF920F93FA
S1131FB01F93CF93DF931F92CDB7DEB78C017B01C4
S1131FC0811522E0920771F461E270E082E062D14F
S1131FD0C82ED12C60E270E082E05CD1DC2CCC24F1
S1131FE0C82A10C080349240D1F565E270E082E0E6
S1131FF051D1C82ED12C64E270E082E04BD1DC2CAC
S1132000CC24C82A8FB78983F894B980C8010E9468
S11320104101F801808192E09083C486D586F7015E
S113202025813681F801208F318FF7019281F801E3
S11320309283F7019481F8019483F7019381F80165
S11320409383F7019181F80191838170F701908165
S1132050892BF8018083C8010E946201BFBE0F90E2
S1132060DF91CF911F910F91FF90EF90DF90CF9070
S1132070BF900895DF92EF92FF920F931F93CF9337
S1132080DF931F92CDB7DEB78C017B018FB78983B5
S1132090F894D980C8010E944101F8018081807CB4
S11320A0F7018083F801808D918DF70185839683F4
S11320B0F8018281F7018283F8018481F701848326
S11320C0F8018381F7018383F8018181F70181831A
S11320D0C8010E946201DFBE0F90DF91CF911F9172
S11320E00F91FF90EF90DF900895AF92BF92CF923F
S11320F0DF92EF92FF920F931F93CF93DF931F9280
S1132100CDB7DEB76C01B62E7A01862F837029F421
S1132110962F9695969582E002C0962F80E090FFC8
S11321208F5F8601005E1F4F98E0899F000D111D8F
S113213011248FB78983F894A980C6010E944101B4
S1132140F7018081F8018083F7018281F80182839D
S1132150F7018181F8018183B0FE04C0F701838116
S1132160F8018683C6010E946201AFBE0F90DF9121
S1132170CF911F910F91FF90EF90DF90CF90BF9080
S1132180AF900895AF92BF92CF92DF92EF92FF92F9
S11321900F931F93CF93DF931F92CDB7DEB76C01DC
S11321A0B62E7A01862F837029F4962F96959695EC
S11321B082E002C0962F80E090FF8F5F8601005E70
S11321C01F4F98E0899F000D111D11248FB789833B
S11321D0F894A980C6010E944101F8018081F701A9
S11321E08083F8018281F7018283F8018181F701FC
S11321F08183B0FE04C0F8018681F7018383C601A0
S11322000E946201AFBE0F90DF91CF911F910F9199
S1132210FF90EF90DF90CF90BF90AF9008958FEF35
S11322208093700080937100809372008093730098
S11322308093740080937500809376000895CF9303
S1132240DF931F92CDB7DEB79FB79983F894998136
S1132250E82FF0E0E059FF4F6095808168236083A8
S11322609FBF0F90DF91CF910895CF93DF931F927B
S1132270CDB7DEB79FB79983F8949981E82FF0E042
S1132280E059FF4F8081682B60839FBF0F90DF91DF
S1132290CF9108954091CA01E62FF72F8093CA0188
S11322A084914093CA010895CF93DF93FC0120E009
S11322B030E0C62FD0E0DE01022E02C0B595A7950E
S11322C00A94E2F7A0FD508B2F5F3F4F31962830E0
S11322D0310589F740FF0AC041FF03C0FC01658353
S11322E002C0FC016683FC01618302C0FC016283BD
S11322F0DF91CF91089543E050E061E080E896E0FB
S1132300D3DF43E050E062E080E896E0CDDF43E0D5
S113231050E064E080E896E0C7DF43E050E068E026
S113232080E896E0C1DF43E050E060E180E896E0B9
S1132330BBDF43E050E060E280E896E0B5DF43E0D5
S113234050E060E480E896E0AFDF43E050E060E80E
S113235080E896E0A9DF40E058E161E080E696E09D
S1132360A3DF40E058E162E080E696E09DDF40E0D4
S113237058E164E080E696E097DF40E058E168E0E9
S113238080E696E091DF40E058E160E180E696E087
S11323908BDF40E058E160E280E696E085DF40E0D4
S11323A058E161E080EE97E07FDF40E058E162E0D1
S11323B080EE97E079DF43E050E060E880E496E067
S11323C073DF43E050E060E280E496E06DDF40E0DC
S11323D050E060E480E496E067DF43E050E068E0CA
S11323E080EC97E061DF40E050E061E080E096E05F
S11323F05BDF40E050E064E080E096E055DF40E0E1
S113240050E062E080E296E04FDF40E057E062E0B7
S113241080E296E049DF40E057E061E080E296E048
S113242043DF41E050E068E080E296E03DDF40E0D9
S113243057E064E080E296E037DF43E050E068E094
S113244080EC97E031DF43E050E068E080E496E020
S11324502BDF40E050E064E080E496E025DF43E0D9
S113246050E068E080E696E01FDF40E050E064E082
S113247080E696E019CF08959A01A6E6B1E031D23C
S11324802091C0203091C12040E050E008D2209338
S1132490BE203093BF208091BE209091BF200A9728
S11324A08093BE209093BF2008954093BC20509306
S11324B0BD2008950F931F93CF93DF93662359F0A4
S11324C08C01EC01060F111D699180EA98E001D995
S11324D0C017D107C9F7DF91CF911F910F910895CC
S11324E0CF93809117208823B1F0C0E080EA98E070
S11324F0F8D88093CC208091CC20843261F0EC2FEA
S1132500F0E08091CC20E85EFF4D8083CF5F809126
S11325101720C81758F3CF9108950F931F93CF93A3
S1132520DF931F92CDB7DEB7682F70E082E296E5A5
S1132530A3D1609308207093092061E083E07FDEDB
S1132540209108203091092040E050E060E874E8D0
S11325508EE190E0A4D12150310900E018E0F801A7
S113256026A337A362E080E06ADE80EC80938001DA
S113257081E0F801808320E030E090E0E0E2F3E0E5
S1132580858180FFFDCFA92FB0E0AA0FBB1FAA5DF4
S1132590BF4D4D915C918FB78983F8948981408FA9
S11325A0518F8FBF9F5F9F7111F42F5F3F4F203D6D
S11325B087E0380728F30F90DF91CF911F910F9197
S11325C00895CF93DF93CDB7DEB76D97CDBFDEBF50
S11325D092DE25DEE6ECF0E2108211821282138292
S11325E01482FF24F394F58287E08093A200789408
S11325F060E070E280EA98E08CD9BE016F5F7F4FA3
S113260080E092E037DDAE01485F5F4F61E080E03B
S113261092E0B8DD9A818B818F7C6894EE24E1F896
S1132620ED82917E9A831C8281608B83BE016F5FF1
S11326307F4F80E092E0B6DC6CE372E180E092E0F0
S11326400E942101188619868A85807F81608A8785
S1132650AE01485F5F4F61E080E092E046DD6FE2EB
S113266070E082E017DE082F10E0102F00276EE2E2
S113267070E082E00FDE082B0093C0201093C1208D
S113268080E092E00E948101BE01645F7F4F80E49C
S113269092E0F0DCAE014D5E5F4F62E080E492E0D8
S11326A071DD9D858E858F7CE88A917E9D871F864E
S11326B081618E87FB8A88E08C8BBE01645F7F4FCB
S11326C080E492E06FDC65E572E180E492E00E94D0
S11326D021018D89807F81608D8BAE014D5E5F4FBE
S11326E062E080E492E001DD80E492E00E948101F6
S11326F0BE01695E7F4F80E293E00E947602F98E0C
S113270084E08F8B888D8C798160888F1A8E8B8D75
S11327108F7880618B8FBE01695E7F4F80E293E08A
S11327200E94190280E293E00E94ED012224239486
S11327300F2EF0EAEF2EF8E0FF2EF02D08E110E264
S11327400F2EF0E8CF2EF6E0DF2EF02D6894332420
S113275031F8812C6894992491F86894662466F879
S1132760772471F80F2EFAE14F2EF0E25F2EF02D50
S11327700F2EFAE0AF2EF0E2BF2EF02D20920720AC
S11327801092BA201092BB20F701818188231CF497
S1132790A7DEF8018081FFE72AE136E0F15020400E
S11327A03040E1F700C00000F60137828091BA2082
S11327B09091BB2001968093BA209093BB20892BE3
S11327C019F01092072004C0809107208111DCCFFA
S11327D08FB78C8FF8949C8DF40180818460808302
S11327E09FBF8FB78D8FF8949D8DF3018081886092
S11327F080839FBF2091BC203091BD208091BE205A
S11328009091BF203F932F939F938F935F924F920A
S1132810BF92AF9289D06CE0C5014CDEFFE72AE19C
S113282036E0F15020403040E1F700C0000088E776
S1132830F8018083F7018181CDBFDEBF88230CF4CA
S11328404FDEF8018081813211F083E066DE8091F1
S1132850BE209091BF208532914018F4822D5DDE18
S11328608DCF8091BE209091BF208733914008F492
S113287085CF832D52DE82CF97FB072E16F400946A
S113288006D077FD08D03CD007FC05D03EF49095E7
S113289081959F4F0895709561957F4F0895A1E2AA
S11328A01A2EAA1BBB1BFD010DC0AA1FBB1FEE1FC6
S11328B0FF1FA217B307E407F50720F0A21BB30B11
S11328C0E40BF50B661F771F881F991F1A9469F78D
S11328D060957095809590959B01AC01BD01CF01E9
S11328E00895A29FB001B39FC001A39F700D811DE5
S11328F01124911DB29F700D811D1124911D089505
S1132900AA1BBB1B51E107C0AA1FBB1FA617B70711
S113291010F0A61BB70B881F991F5A95A9F780952D
S11329209095BC01CD0108950F931F93CF93DF932E
S1132930CDB7DEB72E97CDBFDEBF0E891F8986E0E7
S11329408C8309831A838FEF9FE78D839E83AE0167
S1132950465E5F4F688D798DCE0101960DD0EF8173
S1132960F885E00FF11F10822E96CDBFDEBFDF91F8
S1132970CF911F910F9108952F923F924F925F92A2
S11329806F927F928F929F92AF92BF92CF92DF927B
S1132990EF92FF920F931F93CF93DF93CDB7DEB7E0
S11329A02B97CDBFDEBF6C017B018A01FC0116822F
S11329B01782838181FFBFC1CE0101963C01F601DC
S11329C09381F70193FD859193FF81917F01882382
S11329D009F4ADC1853239F493FD859193FF81915A
S11329E07F01853221F4B60190E0D3D1E8CF912C58
S11329F0212C312CFFE1F315D8F08B3279F038F427
S1132A00803279F08332A1F4232D20611DC08D32F0
S1132A1061F0803369F4232D216016C0832D826018
S1132A20382EE32DE4603E2E2AC0F32DF8601DC03D
S1132A3037FC2DC020ED280F2A3040F08E32B9F437
S1132A4036FC75C1232D2064322E19C036FE06C013
S1132A508AE0989E200D1124922E11C0EAE02E9E49
S1132A60200D1124222EF32DF0623F2E08C08C3647
S1132A7021F4832D8068382E02C0883641F4F70192
S1132A8093FD859193FF81917F018111B3CF982F9D
S1132A909F7D9554933028F40C5F1F4F9FE39983D7
S1132AA00DC0833631F0833771F0833509F055C09A
S1132AB020C0F801808189830E5F1F4F882483948E
S1132AC0912C530112C02801F2E04F0E511CF80161
S1132AD0A080B18036FE03C0692D70E002C06FEFA4
S1132AE07FEFC5014BD14C018201F32DFF773F2EBF
S1132AF015C0280122E0420E511CF801A080B180CB
S1132B0036FE03C0692D70E002C06FEF7FEFC50190
S1132B102AD14C01F32DF0683F2E820133FC19C0F9
S1132B20822D90E088169906A0F4B60180E290E028
S1132B3030D12A94F5CFF50137FC859137FE819188
S1132B405F01B60190E025D121102A9421E0821A78
S1132B5091088114910479F7E1C0843611F0893623
S1132B6039F5F80137FE07C0608171818281938154
S1132B700C5F1F4F08C060817181072E000C880B09
S1132B80990B0E5F1F4FF32DFF763F2E97FF09C061
S1132B9090958095709561957F4F8F4F9F4FF0680A
S1132BA03F2E2AE030E0A30130D1882E861844C09D
S1132BB0853731F4232D2F7EB22E2AE030E025C054
S1132BC0932D997FB92E8F36C1F018F4883579F09A
S1132BD0AEC0803719F0883721F0A9C0E92FE06131
S1132BE0BE2EB4FE0DC0FB2DF460BF2E09C034FE12
S1132BF00AC0292F2660B22E06C028E030E005C0A6
S1132C0020E130E002C020E132E0F801B7FE07C065
S1132C1060817181828193810C5F1F4F06C0608146
S1132C20718180E090E00E5F1F4FA301EED0882EEB
S1132C308618FB2DFF773F2E36FE0DC0232D2E7FE9
S1132C40A22E891458F434FE0BC032FC09C0832D23
S1132C508E7EA82E05C0B82CA32C03C0B82C01C0AE
S1132C60B92CA4FE0FC0FE01E80DF11D8081803354
S1132C7021F49A2D997EA92E09C0A2FE06C0B39410
S1132C80B39404C08A2D867809F0B394A3FC10C0D1
S1132C90A0FE06C0B21480F4280C922C9B180DC020
S1132CA0B21458F4B60180E290E073D0B394F8CF34
S1132CB0B21418F42B1802C0982C212CA4FE0FC0B7
S1132CC0B60180E390E065D0A2FE16C0A1FC03C06B
S1132CD088E790E002C088E590E0B6010CC08A2D38
S1132CE0867851F0A1FE02C08BE201C080E2A7FC0D
S1132CF08DE2B60190E04DD0891430F4B60180E342
S1132D0090E047D09A94F8CF8A94F301E80DF11D2E
S1132D108081B60190E03DD08110F6CF222009F4E5
S1132D204ECEB60180E290E034D02A94F7CFF6017B
S1132D308681978102C08FEF9FEF2B96CDBFDEBFB8
S1132D40DF91CF911F910F91FF90EF90DF90CF9083
S1132D50BF90AF909F908F907F906F905F904F90B7
S1132D603F902F900895FC01059061507040011030
S1132D70D8F7809590958E0F9F1F0895FC016150A0
S1132D80704001900110D8F7809590958E0F9F1F89
S1132D9008950F931F93CF93DF93FB01238121FDAC
S1132DA003C08FEF9FEF2CC022FF16C046815781CE
S1132DB0248135814217530744F4A081B1819D01D8
S1132DC02F5F3F4F208331838C93268137812F5F80
S1132DD03F4F2683378314C08B01EC01FB01008431
S1132DE0F185E02D1995892BE1F6D80116968D9180
S1132DF09C911797019616968D939C931797CE01E5
S1132E00DF91CF911F910F910895FA01AA272830DD
S1132E1051F1203181F1E8946F936E7F6E5F7F4FA3
S1132E208F4F9F4FAF4FB1E03ED0B4E03CD0670F1F
S1132E30781F891F9A1FA11D680F791F8A1F911D72
S1132E40A11D6A0F711D811D911DA11D20D009F4C2
S1132E5068943F912AE0269F11243019305D319304
S1132E60DEF6CF010895462F4770405D4193B3E0ED
S1132E700FD0C9F7F6CF462F4F70405D4A3318F094
S1132E80495D31FD4052419302D0A9F7EACFB4E045
S1132E90A6959795879577956795BA95C9F70097FD
S1132EA06105710508959B01AC010A2E069457959E
S1132EB0479537952795BA95C9F7620F731F841FF5
S10D2EC0951FA01D0895F894FFCF9C
S1132ECA802500000300000122565F3030305F3055
S1132EDA3030305F0D0A000158005F2533645F25E6
S1132EEA34645F0D0A000080FD899893729C34A4AF
S1132EFA92AA4DAF37B233B337B24DAF92AA34A4C4
S1132F0A729C9893FD8900800376686C8E63CC5B0F
S1132F1A6E55B350C94DCD4CC94DB3506E55CC5BAB
S1092F2A8E63686C03765F
S9030000FC
