S00F00004553444C6162312E73726563F9
S1130000F9C000001DC100001BC1000019C100009F
S113001017C1000015C1000013C1000011C1000088
S11300200FC100000DC100000BC1000009C1000098
S113003007C1000005C1000090C10000C6C1000056
S1130040FCC1000032C2000068C200009EC2000071
S1130050D4C200000AC3000040C3000076C30000FD
S1130060EFC00000EDC00000EBC00000E9C00000DC
S1130070E7C00000E5C00000E3C00000E1C00000EC
S1130080DFC00000DDC00000DBC00000D9C00000FC
S1130090D7C00000D5C00000D3C000000C94D90D17
S11300A00C94160E0C94530E0C94900EC9C00000C0
S11300B0C7C00000C5C00000C3C00000AEC500003A
S11300C0E4C500001AC6000050C6000086C6000041
S11300D0BCC60000F2C6000028C700005EC70000CE
S11300E094C70000ADC00000ABC00000A9C0000070
S11300F0A7C00000A5C00000A3C00000A1C000006C
S11301009FC000009DC000009BC0000099C000007B
S113011097C0000095C0000093C000000C94E50C4B
S11301200C94220D0C945F0D0C949C0D89C000005E
S113013087C0000042C3000078C30000AEC30000C3
S1130140E4C300001AC4000050C4000086C40000C8
S1130150BCC40000F2C4000028C5000071C0000047
S11301606FC000006DC000006BC0000069C00000DB
S113017067C0000065C0000063C0000061C00000EB
S11301805FC000005DC000005BC0000059C00000FB
S113019057C0000055C0000053C0000051C000000B
S11301A04FC000004DC000004BC0000049C000001B
S11301B064C700009AC70000D0C700000C94E5088B
S11301C00C941D090C9455090C948D090C94C509C3
S11301D00C94FD090C94350A33C0000031C00000B2
S11301E02FC000002DC000002BC0000029C000005B
S11301F027C0000011241FBECFEFCDBFDFE3DEBF59
S113020000E00CBF18BE19BE1ABE1BBE10E2A0E06F
S1130210B0E2EAEDF9E200E00BBF02C007900D92F4
S1130220A231B107D9F71BBE20E2A2E1B0E201C0BE
S11302301D92A237B207E1F70E9437110C94EB1418
S1130240DFCECF93DF931F92CDB7DEB72FB72983CD
S1130250F8944981282F392F211582E0380729F491
S113026060936A2070936B2007C02034324021F4DD
S113027060936820709369204FBF0F90DF91CF91F6
S11302800895811522E0920769F48091132091E08A
S1130290980F90931320811114C062E081E00C94B4
S11302A01A1008958034924061F48091122091E0F4
S11302B0980F90931220811104C062E082E00C94A4
S11302C01A100895811522E0920761F48091132099
S11302D0815080931320811113C062E081E00C945B
S11302E0301008958034924059F480911220815046
S11302F080931220811104C062E082E00C943010DB
S11303000895EF92FF921F93CF93DF931F921F9252
S1130310CDB7DEB77C018FB78983F8941981C70103
S1130320B0DFF7018081816080831FBF80916D20E1
S11303308F3F09F4FFCF8FB78A83F8949A81ECE654
S1130340F0E281818F5F81839FBF0F900F90DF91D7
S1130350CF911F91FF90EF9008951F920F920FB6C7
S11303600F92112408B60F9218BE09B60F9219BE47
S11303700BB60F921BBE2F933F934F935F936F93D4
S11303807F938F939F93AF93BF93EF93FF93E091EA
S11303906220F0916320309709F01995FF91EF9155
S11303A0BF91AF919F918F917F916F915F914F9189
S11303B03F912F910F900BBE0F9009BE0F9008BE76
S11303C00F900FBE0F901F9018951F920F920FB6AB
S11303D00F92112408B60F9218BE09B60F9219BED7
S11303E00BB60F921BBE2F933F934F935F936F9364
S11303F07F938F939F93AF93BF93EF93FF93E0917A
S11304006020F0916120309709F01995FF91EF91E8
S1130410BF91AF919F918F917F916F915F914F9118
S11304203F912F910F900BBE0F9009BE0F9008BE05
S11304300F900FBE0F901F9018951F920F920FB63A
S11304400F92112408B60F9218BE09B60F9219BE66
S11304500BB60F921BBE2F933F934F935F936F93F3
S11304607F938F939F93AF93BF93EF93FF93E09109
S11304705E20F0915F20309709F01995FF91EF917C
S1130480BF91AF919F918F917F916F915F914F91A8
S11304903F912F910F900BBE0F9009BE0F9008BE95
S11304A00F900FBE0F901F9018951F920F920FB6CA
S11304B00F92112408B60F9218BE09B60F9219BEF6
S11304C00BB60F921BBE2F933F934F935F936F9383
S11304D07F938F939F93AF93BF93EF93FF93E09199
S11304E05C20F0915D20309709F01995FF91EF9110
S11304F0BF91AF919F918F917F916F915F914F9138
S11305003F912F910F900BBE0F9009BE0F9008BE24
S11305100F900FBE0F901F9018951F920F920FB659
S11305200F92112408B60F9218BE09B60F9219BE85
S11305300BB60F921BBE2F933F934F935F936F9312
S11305407F938F939F93AF93BF93EF93FF93E09128
S11305505A20F0915B20309709F01995FF91EF91A3
S1130560BF91AF919F918F917F916F915F914F91C7
S11305703F912F910F900BBE0F9009BE0F9008BEB4
S11305800F900FBE0F901F9018951F920F920FB6E9
S11305900F92112408B60F9218BE09B60F9219BE15
S11305A00BB60F921BBE2F933F934F935F936F93A2
S11305B07F938F939F93AF93BF93EF93FF93E091B8
S11305C05820F0915920309709F01995FF91EF9137
S11305D0BF91AF919F918F917F916F915F914F9157
S11305E03F912F910F900BBE0F9009BE0F9008BE44
S11305F00F900FBE0F901F9018951F920F920FB679
S11306000F92112408B60F9218BE09B60F9219BEA4
S11306100BB60F921BBE2F933F934F935F936F9331
S11306207F938F939F93AF93BF93EF93FF93E09147
S11306305620F0915720309709F01995FF91EF91CA
S1130640BF91AF919F918F917F916F915F914F91E6
S11306503F912F910F900BBE0F9009BE0F9008BED3
S11306600F900FBE0F901F9018951F920F920FB608
S11306700F92112408B60F9218BE09B60F9219BE34
S11306800BB60F921BBE2F933F934F935F936F93C1
S11306907F938F939F93AF93BF93EF93FF93E091D7
S11306A05420F0915520309709F01995FF91EF915E
S11306B0BF91AF919F918F917F916F915F914F9176
S11306C03F912F910F900BBE0F9009BE0F9008BE63
S11306D00F900FBE0F901F9018951F920F920FB698
S11306E00F92112408B60F9218BE09B60F9219BEC4
S11306F00BB60F921BBE2F933F934F935F936F9351
S11307007F938F939F93AF93BF93EF93FF93E09166
S11307105220F0915320309709F01995FF91EF91F1
S1130720BF91AF919F918F917F916F915F914F9105
S11307303F912F910F900BBE0F9009BE0F9008BEF2
S11307400F900FBE0F901F9018951F920F920FB627
S11307500F92112408B60F9218BE09B60F9219BE53
S11307600BB60F921BBE2F933F934F935F936F93E0
S11307707F938F939F93AF93BF93EF93FF93E091F6
S11307805020F0915120309709F01995FF91EF9185
S1130790BF91AF919F918F917F916F915F914F9195
S11307A03F912F910F900BBE0F9009BE0F9008BE82
S11307B00F900FBE0F901F9018951F920F920FB6B7
S11307C00F92112408B60F9218BE09B60F9219BEE3
S11307D00BB60F921BBE2F933F934F935F936F9370
S11307E07F938F939F93AF93BF93EF93FF93E09186
S11307F04E20F0914F20309709F01995FF91EF9119
S1130800BF91AF919F918F917F916F915F914F9124
S11308103F912F910F900BBE0F9009BE0F9008BE11
S11308200F900FBE0F901F9018951F920F920FB646
S11308300F92112408B60F9218BE09B60F9219BE72
S11308400BB60F921BBE2F933F934F935F936F93FF
S11308507F938F939F93AF93BF93EF93FF93E09115
S11308604C20F0914D20309709F01995FF91EF91AC
S1130870BF91AF919F918F917F916F915F914F91B4
S11308803F912F910F900BBE0F9009BE0F9008BEA1
S11308900F900FBE0F901F9018951F920F920FB6D6
S11308A00F92112408B60F9218BE09B60F9219BE02
S11308B00BB60F921BBE2F933F934F935F936F938F
S11308C07F938F939F93AF93BF93EF93FF93E091A5
S11308D04A20F0914B20309709F01995FF91EF9140
S11308E0BF91AF919F918F917F916F915F914F9144
S11308F03F912F910F900BBE0F9009BE0F9008BE31
S11309000F900FBE0F901F9018951F920F920FB665
S11309100F92112408B60F9218BE09B60F9219BE91
S11309200BB60F921BBE2F933F934F935F936F931E
S11309307F938F939F93AF93BF93EF93FF93E09134
S11309404820F0914920309709F01995FF91EF91D3
S1130950BF91AF919F918F917F916F915F914F91D3
S11309603F912F910F900BBE0F9009BE0F9008BEC0
S11309700F900FBE0F901F9018951F920F920FB6F5
S11309800F92112408B60F9218BE09B60F9219BE21
S11309900BB60F921BBE2F933F934F935F936F93AE
S11309A07F938F939F93AF93BF93EF93FF93E091C4
S11309B04620F0914720309709F01995FF91EF9167
S11309C0BF91AF919F918F917F916F915F914F9163
S11309D03F912F910F900BBE0F9009BE0F9008BE50
S11309E00F900FBE0F901F9018951F920F920FB685
S11309F00F92112408B60F9218BE09B60F9219BEB1
S1130A000BB60F921BBE2F933F934F935F936F933D
S1130A107F938F939F93AF93BF93EF93FF93E09153
S1130A204420F0914520309709F01995FF91EF91FA
S1130A30BF91AF919F918F917F916F915F914F91F2
S1130A403F912F910F900BBE0F9009BE0F9008BEDF
S1130A500F900FBE0F901F9018951F920F920FB614
S1130A600F92112408B60F9218BE09B60F9219BE40
S1130A700BB60F921BBE2F933F934F935F936F93CD
S1130A807F938F939F93AF93BF93EF93FF93E091E3
S1130A904220F0914320309709F01995FF91EF918E
S1130AA0BF91AF919F918F917F916F915F914F9182
S1130AB03F912F910F900BBE0F9009BE0F9008BE6F
S1130AC00F900FBE0F901F9018951F920F920FB6A4
S1130AD00F92112408B60F9218BE09B60F9219BED0
S1130AE00BB60F921BBE2F933F934F935F936F935D
S1130AF07F938F939F93AF93BF93EF93FF93E09173
S1130B004020F0914120309709F01995FF91EF9121
S1130B10BF91AF919F918F917F916F915F914F9111
S1130B203F912F910F900BBE0F9009BE0F9008BEFE
S1130B300F900FBE0F901F9018951F920F920FB633
S1130B400F92112408B60F9218BE09B60F9219BE5F
S1130B500BB60F921BBE2F933F934F935F936F93EC
S1130B607F938F939F93AF93BF93EF93FF93E09102
S1130B703E20F0913F20309709F01995FF91EF91B5
S1130B80BF91AF919F918F917F916F915F914F91A1
S1130B903F912F910F900BBE0F9009BE0F9008BE8E
S1130BA00F900FBE0F901F9018951F920F920FB6C3
S1130BB00F92112408B60F9218BE09B60F9219BEEF
S1130BC00BB60F921BBE2F933F934F935F936F937C
S1130BD07F938F939F93AF93BF93EF93FF93E09192
S1130BE03C20F0913D20309709F01995FF91EF9149
S1130BF0BF91AF919F918F917F916F915F914F9131
S1130C003F912F910F900BBE0F9009BE0F9008BE1D
S1130C100F900FBE0F901F9018951F920F920FB652
S1130C200F92112408B60F9218BE09B60F9219BE7E
S1130C300BB60F921BBE2F933F934F935F936F930B
S1130C407F938F939F93AF93BF93EF93FF93E09121
S1130C503A20F0913B20309709F01995FF91EF91DC
S1130C60BF91AF919F918F917F916F915F914F91C0
S1130C703F912F910F900BBE0F9009BE0F9008BEAD
S1130C800F900FBE0F901F9018951F920F920FB6E2
S1130C900F92112408B60F9218BE09B60F9219BE0E
S1130CA00BB60F921BBE2F933F934F935F936F939B
S1130CB07F938F939F93AF93BF93EF93FF93E091B1
S1130CC03820F0913920309709F01995FF91EF9170
S1130CD0BF91AF919F918F917F916F915F914F9150
S1130CE03F912F910F900BBE0F9009BE0F9008BE3D
S1130CF00F900FBE0F901F9018951F920F920FB672
S1130D000F92112408B60F9218BE09B60F9219BE9D
S1130D100BB60F921BBE2F933F934F935F936F932A
S1130D207F938F939F93AF93BF93EF93FF93E09140
S1130D303620F0913720309709F01995FF91EF9103
S1130D40BF91AF919F918F917F916F915F914F91DF
S1130D503F912F910F900BBE0F9009BE0F9008BECC
S1130D600F900FBE0F901F9018951F920F920FB601
S1130D700F92112408B60F9218BE09B60F9219BE2D
S1130D800BB60F921BBE2F933F934F935F936F93BA
S1130D907F938F939F93AF93BF93EF93FF93E091D0
S1130DA03420F0913520309709F01995FF91EF9197
S1130DB0BF91AF919F918F917F916F915F914F916F
S1130DC03F912F910F900BBE0F9009BE0F9008BE5C
S1130DD00F900FBE0F901F9018951F920F920FB691
S1130DE00F92112408B60F9218BE09B60F9219BEBD
S1130DF00BB60F921BBE2F933F934F935F936F934A
S1130E007F938F939F93AF93BF93EF93FF93E0915F
S1130E103220F0913320309709F01995FF91EF912A
S1130E20BF91AF919F918F917F916F915F914F91FE
S1130E303F912F910F900BBE0F9009BE0F9008BEEB
S1130E400F900FBE0F901F9018951F920F920FB620
S1130E500F92112408B60F9218BE09B60F9219BE4C
S1130E600BB60F921BBE2F933F934F935F936F93D9
S1130E707F938F939F93AF93BF93EF93FF93E091EF
S1130E803020F0913120309709F01995FF91EF91BE
S1130E90BF91AF919F918F917F916F915F914F918E
S1130EA03F912F910F900BBE0F9009BE0F9008BE7B
S1130EB00F900FBE0F901F9018951F920F920FB6B0
S1130EC00F92112408B60F9218BE09B60F9219BEDC
S1130ED00BB60F921BBE2F933F934F935F936F9369
S1130EE07F938F939F93AF93BF93EF93FF93E0917F
S1130EF02E20F0912F20309709F01995FF91EF9152
S1130F00BF91AF919F918F917F916F915F914F911D
S1130F103F912F910F900BBE0F9009BE0F9008BE0A
S1130F200F900FBE0F901F9018951F920F920FB63F
S1130F300F92112408B60F9218BE09B60F9219BE6B
S1130F400BB60F921BBE2F933F934F935F936F93F8
S1130F507F938F939F93AF93BF93EF93FF93E0910E
S1130F602C20F0912D20309709F01995FF91EF91E5
S1130F70BF91AF919F918F917F916F915F914F91AD
S1130F803F912F910F900BBE0F9009BE0F9008BE9A
S1130F900F900FBE0F901F9018951F920F920FB6CF
S1130FA00F92112408B60F9218BE09B60F9219BEFB
S1130FB00BB60F921BBE2F933F934F935F936F9388
S1130FC07F938F939F93AF93BF93EF93FF93E0919E
S1130FD02A20F0912B20309709F01995FF91EF9179
S1130FE0BF91AF919F918F917F916F915F914F913D
S1130FF03F912F910F900BBE0F9009BE0F9008BE2A
S11310000F900FBE0F901F9018951F920F920FB65E
S11310100F92112408B60F9218BE09B60F9219BE8A
S11310200BB60F921BBE2F933F934F935F936F9317
S11310307F938F939F93AF93BF93EF93FF93E0912D
S11310402820F0912920309709F01995FF91EF910C
S1131050BF91AF919F918F917F916F915F914F91CC
S11310603F912F910F900BBE0F9009BE0F9008BEB9
S11310700F900FBE0F901F9018951F920F920FB6EE
S11310800F92112408B60F9218BE09B60F9219BE1A
S11310900BB60F921BBE2F933F934F935F936F93A7
S11310A07F938F939F93AF93BF93EF93FF93E091BD
S11310B02620F0912720309709F01995FF91EF91A0
S11310C0BF91AF919F918F917F916F915F914F915C
S11310D03F912F910F900BBE0F9009BE0F9008BE49
S11310E00F900FBE0F901F9018951F920F920FB67E
S11310F00F92112408B60F9218BE09B60F9219BEAA
S11311000BB60F921BBE2F933F934F935F936F9336
S11311107F938F939F93AF93BF93EF93FF93E0914C
S11311202420F0912520309709F01995FF91EF9133
S1131130BF91AF919F918F917F916F915F914F91EB
S11311403F912F910F900BBE0F9009BE0F9008BED8
S11311500F900FBE0F901F9018951F920F920FB60D
S11311600F92112408B60F9218BE09B60F9219BE39
S11311700BB60F921BBE2F933F934F935F936F93C6
S11311807F938F939F93AF93BF93EF93FF93E091DC
S11311902220F0912320309709F01995FF91EF91C7
S11311A0BF91AF919F918F917F916F915F914F917B
S11311B03F912F910F900BBE0F9009BE0F9008BE68
S11311C00F900FBE0F901F9018951F920F920FB69D
S11311D00F92112408B60F9218BE09B60F9219BEC9
S11311E00BB60F921BBE2F933F934F935F936F9356
S11311F07F938F939F93AF93BF93EF93FF93E0916C
S11312002020F0912120309709F01995FF91EF915A
S1131210BF91AF919F918F917F916F915F914F910A
S11312203F912F910F900BBE0F9009BE0F9008BEF7
S11312300F900FBE0F901F9018951F920F920FB62C
S11312400F92112408B60F9218BE09B60F9219BE58
S11312500BB60F921BBE2F933F934F935F936F93E5
S11312607F938F939F93AF93BF93EF93FF93E091FB
S11312701E20F0911F20309709F01995FF91EF91EE
S1131280BF91AF919F918F917F916F915F914F919A
S11312903F912F910F900BBE0F9009BE0F9008BE87
S11312A00F900FBE0F901F9018951F920F920FB6BC
S11312B00F92112408B60F9218BE09B60F9219BEE8
S11312C00BB60F921BBE2F933F934F935F936F9375
S11312D07F938F939F93AF93BF93EF93FF93E0918B
S11312E01C20F0911D20309709F01995FF91EF9182
S11312F0BF91AF919F918F917F916F915F914F912A
S11313003F912F910F900BBE0F9009BE0F9008BE16
S11313100F900FBE0F901F9018951F920F920FB64B
S11313200F92112408B60F9218BE09B60F9219BE77
S11313300BB60F921BBE2F933F934F935F936F9304
S11313407F938F939F93AF93BF93EF93FF93E0911A
S11313501A20F0911B20309709F01995FF91EF9115
S1131360BF91AF919F918F917F916F915F914F91B9
S11313703F912F910F900BBE0F9009BE0F9008BEA6
S11313800F900FBE0F901F9018951F920F920FB6DB
S11313900F92112408B60F9218BE09B60F9219BE07
S11313A00BB60F921BBE2F933F934F935F936F9394
S11313B07F938F939F93AF93BF93EF93FF93E091AA
S11313C01820F0911920309709F01995FF91EF91A9
S11313D0BF91AF919F918F917F916F915F914F9149
S11313E03F912F910F900BBE0F9009BE0F9008BE36
S11313F00F900FBE0F901F9018951F920F920FB66B
S11314000F92112408B60F9218BE09B60F9219BE96
S11314100BB60F921BBE2F933F934F935F936F9323
S11314207F938F939F93AF93BF93EF93FF93E09139
S11314301620F0911720309709F01995FF91EF913C
S1131440BF91AF919F918F917F916F915F914F91D8
S11314503F912F910F900BBE0F9009BE0F9008BEC5
S11314600F900FBE0F901F9018951F920F920FB6FA
S11314700F92112408B60F9218BE09B60F9219BE26
S11314800BB60F921BBE2F933F934F935F936F93B3
S11314907F938F939F93AF93BF93EF93FF93E091C9
S11314A01420F0911520309709F01995FF91EF91D0
S11314B0BF91AF919F918F917F916F915F914F9168
S11314C03F912F910F900BBE0F9009BE0F9008BE55
S11314D00F900FBE0F901F901895FC01918195FFFE
S11314E0FDCF608380E090E008954F925F926F9209
S11314F07F928F929F92AF92BF92EF92FF920F933F
S11315001F93CF937C014A015B0128013901FC013F
S1131510848182FF16C0D901C801689412F8B69577
S1131520A795979587951694D1F7B901A801032E2D
S113153036E176956795579547953A95D1F7302DCD
S113154015C0D901C801689413F8B695A795979565
S113155087951694D1F7B901A801032E37E1769542
S11315606795579547953A95D1F7302D8815990584
S1131570AA05BB0508F4A2C084169506A606B706FC
S113158008F49EC0F701848182FD04C0880C991C74
S1131590AA1CBB1CC301B201A50194011CD72F3F97
S11315A031054105510508F48DC08FEF90E0A0E0AE
S11315B0B0E0C9EF05C0281739074A075B0758F0A0
S11315C0880F991FAA1FBB1FCD3F0CF48160CF5F0A
S11315D0C73089F74DC0CC230CF04AC0D501C401F3
S11315E0880F991FAA1FBB1F880F991FAA1FBB1F13
S11315F0880F991FAA1FBB1F481A590A6A0A7B0A37
S1131600CE3FECF48DEF9FEF8C1B9109C7FD9395B2
S113161004C0440C551C661C771C8A95D2F7D5016E
S1131620C401B695A79597958795BC01CD01640D26
S1131630751D861D971DA5019401CDD635C083E087
S11316408C0FA501940104C0220F331F441F551FA2
S11316508A95D2F7DA01C901B695A795979587952A
S1131660BC01CD01640D751D861D971DB4D61CC02B
S113167083E08C0FA501940104C0220F331F441F83
S1131680551F8A95D2F7DA01C901B695A7959795A2
S11316908795BC01CD01640D751D861D971D9BD6D4
S11316A02150310941095109832F8F70C295C07FA0
S11316B0C82BF701C783268381E018C080E016C0D9
S11316C080E014C0D501C401880F991FAA1FBB1F55
S11316D0880F991FAA1FBB1F880F991FAA1FBB1F22
S11316E0481A590A6A0A7B0AC9EF8CCFCF911F9115
S11316F00F91FF90EF90BF90AF909F908F907F904D
S11317006F905F904F9008950F931F93CF93DF9343
S1131710EC018B01009709F436C1803C910521F45A
S113172060E180E087D42FC1C03484E0D80721F47D
S113173068E080E07FD427C1C115E4E0DE0721F42E
S113174064E080E077D41FC1C038F1E0DF0721F402
S113175062E080E06FD417C1C11581E0D80721F49D
S113176061E080E067D40FC1C038E3E0DE0721F414
S113177061E081E05FD407C1C039F3E0DF0721F401
S113178061E082E057D4FFC0C11582E0D80721F49C
S113179062E081E04FD4F7C0C034E2E0DE0721F418
S11317A062E082E047D4EFC0C115F3E0DF0721F423
S11317B064E081E03FD4E7C0C03283E0D80721F47D
S11317C064E082E037D4DFC0C115E8E0DE0721F42D
S11317D061E083E02FD4D7C0C115F9E0DF0721F41D
S11317E061E084E027D4CFC0C1158AE0D80721F492
S11317F061E085E01FD4C7C0C115EBE0DE0721F42A
S113180061E086E017D4BFC0C034F8E0DF0721F4FC
S113181062E083E00FD4B7C0C03489E0D80721F474
S113182062E084E007D4AFC0C034EAE0DE0721F40C
S113183062E085E0FFD3A7C0C034FBE0DF0721F4FA
S113184062E086E0F7D39FC0C03988E0D80721F46E
S113185064E083E0EFD397C0C039E9E0DE0721F408
S113186064E084E0E7D38FC0C039FAE0DF0721F4F5
S113187064E085E0DFD387C0C0398BE0D80721F46A
S113188064E086E0D7D37FC0C03CE8E0DE0721F403
S113189068E083E0CFD377C0C03CF9E0DF0721F4F0
S11318A068E084E0C7D36FC0C03C8AE0D80721F465
S11318B068E085E0BFD367C0C03CEBE0DE0721F4FD
S11318C068E086E0B7D35FC0C03AF8E0DF0721F4F0
S11318D060E183E0AFD357C0C03A89E0D80721F470
S11318E060E184E0A7D34FC0C03AEAE0DE0721F408
S11318F060E185E09FD347C0C03AFBE0DF0721F4F5
S113190060E186E097D33FC0C03B88E0D80721F46C
S113191060E283E08FD337C0C03BE9E0DE0721F407
S113192060E284E087D32FC0C03BFAE0DF0721F4F4
S113193060E285E07FD327C0C03B8BE0D80721F469
S113194060E286E077D31FC0C038E4E0DE0721F40C
S113195060E483E06FD317C0C039F4E0DF0721F4FB
S113196060E484E067D30FC0C03A84E0D80721F470
S113197060E485E05FD307C0C03BE4E0DE0719F410
S113198060E486E057D38D818F738D83F801958150
S11319908481892B9681911198E0892B8D83F8019C
S11319A0408151816281738100E814E82EE130E0C6
S11319B0CE019BDD9C8198609C839C8190619C837B
S11319C0DF91CF911F910F9108951F920F920FB63F
S11319D00F92112408B60F9218BE09B60F9219BEC1
S11319E00BB60F921BBE2F933F934F935F936F934E
S11319F07F938F939F93AF93BF93EF93FF93409104
S1131A00240250912502E0916A20F0916B2061E05C
S1131A1080E092E01995FF91EF91BF91AF919F9172
S1131A208F917F916F915F914F913F912F910F9083
S1131A300BBE0F9009BE0F9008BE0F900FBE0F9003
S1131A401F9018951F920F920FB60F92112408B68B
S1131A500F9218BE09B60F9219BE0BB60F921BBE99
S1131A602F933F934F935F936F937F938F939F93A2
S1131A70AF93BF93EF93FF9340912C0250912D02AB
S1131A80E0916A20F0916B2062E080E092E0199589
S1131A90FF91EF91BF91AF919F918F917F916F9142
S1131AA05F914F913F912F910F900BBE0F9009BE04
S1131AB00F9008BE0F900FBE0F901F9018951F92A5
S1131AC00F920FB60F92112408B60F9218BE09B6E2
S1131AD00F9219BE0BB60F921BBE2F933F934F93D9
S1131AE05F936F937F938F939F93AF93BF93EF9382
S1131AF0FF934091340250913502E0916A20F091B5
S1131B006B2064E080E092E01995FF91EF91BF9122
S1131B10AF919F918F917F916F915F914F913F9181
S1131B202F910F900BBE0F9009BE0F9008BE0F901F
S1131B300FBE0F901F9018951F920F920FB60F9221
S1131B40112408B60F9218BE09B60F9219BE0BB62F
S1131B500F921BBE2F933F934F935F936F937F938B
S1131B608F939F93AF93BF93EF93FF9340913C0266
S1131B7050913D02E0916A20F0916B2068E080E092
S1131B8092E01995FF91EF91BF91AF919F918F9141
S1131B907F916F915F914F913F912F910F900BBE69
S1131BA00F9009BE0F9008BE0F900FBE0F901F90AC
S1131BB018951F920F920FB60F92112408B60F9228
S1131BC018BE09B60F9219BE0BB60F921BBE2F9307
S1131BD03F934F935F936F937F938F939F93AF93B1
S1131BE0BF93EF93FF934091640250916502E0919B
S1131BF06820F091692061E080E492E01995FF91FA
S1131C00EF91BF91AF919F918F917F916F915F9170
S1131C104F913F912F910F900BBE0F9009BE0F90E3
S1131C2008BE0F900FBE0F901F9018951F920F9231
S1131C300FB60F92112408B60F9218BE09B60F9270
S1131C4019BE0BB60F921BBE2F933F934F935F9316
S1131C506F937F938F939F93AF93BF93EF93FF9370
S1131C6040916C0250916D02E0916820F0916920DE
S1131C7062E080E492E01995FF91EF91BF91AF91FA
S1131C809F918F917F916F915F914F913F912F9190
S1131C900F900BBE0F9009BE0F9008BE0F900FBEA1
S1131CA00F901F9018951F920F920FB60F92112448
S1131CB008B60F9218BE09B60F9219BE0BB60F9252
S1131CC01BBE2F933F934F935F936F937F938F9399
S1131CD09F93AF93BF93EF93FF93409174025091FE
S1131CE07502E0916820F091692064E080E492E05C
S1131CF01995FF91EF91BF91AF919F918F917F9132
S1131D006F915F914F913F912F910F900BBE0F9068
S1131D1009BE0F9008BE0F900FBE0F901F9018952C
S1131D201F920F920FB60F92112408B60F9218BE8D
S1131D3009B60F9219BE0BB60F921BBE2F933F9399
S1131D404F935F936F937F938F939F93AF93BF93BF
S1131D50EF93FF9340917C0250917D02E0916820C3
S1131D60F091692068E080E492E01995FF91EF9189
S1131D70BF91AF919F918F917F916F915F914F919F
S1131D803F912F910F900BBE0F9009BE0F9008BE8C
S1131D900F900FBE0F901F901895BF92CF92DF92B5
S1131DA0EF92FF920F931F93CF93DF931F92CDB7C0
S1131DB0DEB78C017B01811522E0920771F461E2A8
S1131DC070E082E062D1C82ED12C60E270E082E043
S1131DD05CD1DC2CCC24C82A10C080349240D1F5CC
S1131DE065E270E082E051D1C82ED12C64E270E04B
S1131DF082E04BD1DC2CCC24C82A8FB78983F89499
S1131E00B980C8010E944101F801808192E0908369
S1131E10C486D586F70125813681F801208F318F5C
S1131E20F7019281F8019283F7019481F801948378
S1131E30F7019381F8019383F7019181F80191836C
S1131E408170F7019081892BF8018083C8010E9479
S1131E506201BFBE0F90DF91CF911F910F91FF9050
S1131E60EF90DF90CF90BF900895DF92EF92FF92B2
S1131E700F931F93CF93DF931F92CDB7DEB78C01DF
S1131E807B018FB78983F894D980C8010E944101EE
S1131E90F8018081807CF7018083F801808D918D29
S1131EA0F70185839683F8018281F7018283F80123
S1131EB08481F7018483F8018381F7018383F80126
S1131EC08181F7018183C8010E946201DFBE0F9006
S1131ED0DF91CF911F910F91FF90EF90DF900895C4
S1131EE0AF92BF92CF92DF92EF92FF920F931F9324
S1131EF0CF93DF931F92CDB7DEB76C01B62E7A0174
S1131F00862F837029F4962F9695969582E002C0C9
S1131F10962F80E090FF8F5F8601005E1F4F98E050
S1131F20899F000D111D11248FB78983F894A9800E
S1131F30C6010E944101F7018081F8018083F70105
S1131F408281F8018283F7018181F8018183B0FEE7
S1131F5004C0F7018381F8018683C6010E946201EF
S1131F60AFBE0F90DF91CF911F910F91FF90EF9033
S1131F70DF90CF90BF90AF900895AF92BF92CF9271
S1131F80DF92EF92FF920F931F93CF93DF931F92F1
S1131F90CDB7DEB76C01B62E7A01862F837029F493
S1131FA0962F9695969582E002C0962F80E090FF3A
S1131FB08F5F8601005E1F4F98E0899F000D111D01
S1131FC011248FB78983F894A980C6010E94410126
S1131FD0F8018081F7018083F8018281F70182830F
S1131FE0F8018181F7018183B0FE04C0F801868184
S1131FF0F7018383C6010E946201AFBE0F90DF9197
S1132000CF911F910F91FF90EF90DF90CF90BF90F1
S1132010AF9008958FEF8093700080937100809348
S11320207200809373008093740080937500809392
S113203076000895CF93DF931F92CDB7DEB79FB795
S11320409983F8949981E82FF0E0E059FF4F609567
S11320508081682360839FBF0F90DF91CF910895A3
S1132060CF93DF931F92CDB7DEB79FB79983F894D0
S11320709981E82FF0E0E059FF4F8081682B60835D
S11320809FBF0F90DF91CF9108954091CA01E62F31
S1132090F72F8093CA0184914093CA010895CF9386
S11320A0DF93FC0120E030E0C62FD0E0DE01022EF9
S11320B002C0B595A7950A94E2F7A0FD508B2F5F57
S11320C03F4F31962830310589F740FF0AC041FF60
S11320D003C0FC01658302C0FC016683FC016183CB
S11320E002C0FC016283DF91CF91089543E050E088
S11320F061E080E896E0D3DF43E050E062E080E80E
S113210096E0CDDF43E050E064E080E896E0C7DF8E
S113211043E050E068E080E896E0C1DF43E050E04F
S113212060E180E896E0BBDF43E050E060E280E8F5
S113213096E0B5DF43E050E060E480E896E0AFDF8E
S113214043E050E060E880E896E0A9DF40E058E131
S113215061E080E696E0A3DF40E058E162E080E6DB
S113216096E09DDF40E058E164E080E696E097DF8A
S113217040E058E168E080E696E091DF40E058E115
S113218060E180E696E08BDF40E058E160E280E6C3
S113219096E085DF40E058E161E080EE97E07FDF84
S11321A040E058E162E080EE97E079DF43E050E000
S11321B060E880E496E073DF43E050E060E280E4AE
S11321C096E06DDF40E050E060E480E496E067DF95
S11321D043E050E068E080EC97E061DF40E050E0ED
S11321E061E080E096E05BDF40E050E064E080E0A6
S11321F096E055DF40E050E062E080E296E04FDF99
S113220040E057E062E080E296E049DF40E057E0DA
S113221061E080E296E043DF41E050E068E080E284
S113222096E03DDF40E057E064E080E296E037DF8F
S113223043E050E068E080EC97E031DF43E050E0B9
S113224068E080E496E02BDF40E050E064E080E466
S113225096E025DF43E050E068E080E696E01FDF8B
S113226040E050E064E080E696E019CF0895CF9313
S1132270DF93CDB7DEB72C97CDBFDEBF37DFCADE25
S1132280ECE6F0E21082118212821382148281E061
S1132290858387E08093A200789460E070E280EA0E
S11322A098E032DABE016F5F7F4F80E092E0DDDDBF
S11322B0AE01485F5F4F61E080E092E05EDE9A81AC
S11322C08B818F7C22E02D83917E9A831C82816096
S11322D08B83BE016F5F7F4F80E092E05EDD61EC37
S11322E071E180E092E00E942101188619868A85B6
S11322F0807F81608A87AE01485F5F4F61E080E044
S113230092E0EEDD6FE270E082E0BFDE082F10E0C5
S1132310102F00276EE270E082E0B7DE082B0093F6
S113232066201093672080E092E00E948101E0E043
S1132330F2E08FB78C87F8949C85808184608083D9
S11323409FBF2FEF84E39CE0215080409040E1F751
S113235000C00000EECF0F931F93CF93DF9366234B
S113236059F08C01EC01060F111D699180EA98E087
S1132370B4D8C017D107C9F7DF91CF911F910F913E
S113238008959A01A6E6B1E048D0209166203091E4
S1132390672040E050E01FD02093642030936520F4
S11323A081E48F9381E28F9389E98F938AE98F93F4
S11323B08CE090E29F938F9387E090E29F938F93BA
S11323C03BD064E087E090E2C6DF8DB79EB7089605
S11323D08DBF9EBF0895A1E21A2EAA1BBB1BFD014F
S11323E00DC0AA1FBB1FEE1FFF1FA217B307E407F0
S11323F0F50720F0A21BB30BE40BF50B661F771F48
S1132400881F991F1A9469F7609570958095909527
S11324109B01AC01BD01CF010895A29FB001B39F00
S1132420C001A39F700D811D1124911DB29F700DD9
S1132430811D1124911D08950F931F93CF93DF9352
S1132440CDB7DEB72E97CDBFDEBF0E891F8986E0DC
S11324508C8309831A838FEF9FE78D839E83AE015C
S1132460465E5F4F688D798DCE0101960DD0EF8168
S1132470F885E00FF11F10822E96CDBFDEBFDF91ED
S1132480CF911F910F9108952F923F924F925F9297
S11324906F927F928F929F92AF92BF92CF92DF9270
S11324A0EF92FF920F931F93CF93DF93CDB7DEB7D5
S11324B02B97CDBFDEBF6C017B018A01FC01168224
S11324C01782838181FFBFC1CE0101963C01F601D1
S11324D09381F70193FD859193FF81917F01882377
S11324E009F4ADC1853239F493FD859193FF81914F
S11324F07F01853221F4B60190E0D3D1E8CF912C4D
S1132500212C312CFFE1F315D8F08B3279F038F41B
S1132510803279F08332A1F4232D20611DC08D32E5
S113252061F0803369F4232D216016C0832D82600D
S1132530382EE32DE4603E2E2AC0F32DF8601DC032
S113254037FC2DC020ED280F2A3040F08E32B9F42C
S113255036FC75C1232D2064322E19C036FE06C008
S11325608AE0989E200D1124922E11C0EAE02E9E3E
S1132570200D1124222EF32DF0623F2E08C08C363C
S113258021F4832D8068382E02C0883641F4F70187
S113259093FD859193FF81917F018111B3CF982F92
S11325A09F7D9554933028F40C5F1F4F9FE39983CC
S11325B00DC0833631F0833771F0833509F055C08F
S11325C020C0F801808189830E5F1F4F8824839483
S11325D0912C530112C02801F2E04F0E511CF80156
S11325E0A080B18036FE03C0692D70E002C06FEF99
S11325F07FEFC5014BD14C018201F32DFF773F2EB4
S113260015C0280122E0420E511CF801A080B180BF
S113261036FE03C0692D70E002C06FEF7FEFC50185
S11326202AD14C01F32DF0683F2E820133FC19C0EE
S1132630822D90E088169906A0F4B60180E290E01D
S113264030D12A94F5CFF50137FC859137FE81917D
S11326505F01B60190E025D121102A9421E0821A6D
S113266091088114910479F7E1C0843611F0893618
S113267039F5F80137FE07C0608171818281938149
S11326800C5F1F4F08C060817181072E000C880BFE
S1132690990B0E5F1F4FF32DFF763F2E97FF09C056
S11326A090958095709561957F4F8F4F9F4FF068FF
S11326B03F2E2AE030E0A30130D1882E861844C092
S11326C0853731F4232D2F7EB22E2AE030E025C049
S11326D0932D997FB92E8F36C1F018F4883579F08F
S11326E0AEC0803719F0883721F0A9C0E92FE06126
S11326F0BE2EB4FE0DC0FB2DF460BF2E09C034FE07
S11327000AC0292F2660B22E06C028E030E005C09A
S113271020E130E002C020E132E0F801B7FE07C05A
S113272060817181828193810C5F1F4F06C060813B
S1132730718180E090E00E5F1F4FA301EED0882EE0
S11327408618FB2DFF773F2E36FE0DC0232D2E7FDE
S1132750A22E891458F434FE0BC032FC09C0832D18
S11327608E7EA82E05C0B82CA32C03C0B82C01C0A3
S1132770B92CA4FE0FC0FE01E80DF11D8081803349
S113278021F49A2D997EA92E09C0A2FE06C0B39405
S1132790B39404C08A2D867809F0B394A3FC10C0C6
S11327A0A0FE06C0B21480F4280C922C9B180DC015
S11327B0B21458F4B60180E290E073D0B394F8CF29
S11327C0B21418F42B1802C0982C212CA4FE0FC0AC
S11327D0B60180E390E065D0A2FE16C0A1FC03C060
S11327E088E790E002C088E590E0B6010CC08A2D2D
S11327F0867851F0A1FE02C08BE201C080E2A7FC02
S11328008DE2B60190E04DD0891430F4B60180E336
S113281090E047D09A94F8CF8A94F301E80DF11D23
S11328208081B60190E03DD08110F6CF222009F4DA
S11328304ECEB60180E290E034D02A94F7CFF60170
S11328408681978102C08FEF9FEF2B96CDBFDEBFAD
S1132850DF91CF911F910F91FF90EF90DF90CF9078
S1132860BF90AF909F908F907F906F905F904F90AC
S11328703F902F900895FC01059061507040011025
S1132880D8F7809590958E0F9F1F0895FC01615095
S1132890704001900110D8F7809590958E0F9F1F7E
S11328A008950F931F93CF93DF93FB01238121FDA1
S11328B003C08FEF9FEF2CC022FF16C046815781C3
S11328C0248135814217530744F4A081B1819D01CD
S11328D02F5F3F4F208331838C93268137812F5F75
S11328E03F4F2683378314C08B01EC01FB01008426
S11328F0F185E02D1995892BE1F6D80116968D9175
S11329009C911797019616968D939C931797CE01D9
S1132910DF91CF911F910F910895FA01AA272830D2
S113292051F1203181F1E8946F936E7F6E5F7F4F98
S11329308F4F9F4FAF4FB1E03ED0B4E03CD0670F14
S1132940781F891F9A1FA11D680F791F8A1F911D67
S1132950A11D6A0F711D811D911DA11D20D009F4B7
S113296068943F912AE0269F11243019305D3193F9
S1132970DEF6CF010895462F4770405D4193B3E0E2
S11329800FD0C9F7F6CF462F4F70405D4A3318F089
S1132990495D31FD4052419302D0A9F7EACFB4E03A
S11329A0A6959795879577956795BA95C9F70097F2
S11329B06105710508959B01AC010A2E0694579593
S11329C0479537952795BA95C9F7620F731F841FEA
S10D29D0951FA01D0895F894FFCF91
S11329DA80250000030000303030300025660025D1
S10529EA640083
S9030000FC
