:10000000F9C000001BC1000019C1000017C10000A9
:1000100015C1000013C1000011C100000FC1000094
:100020000DC100000BC1000009C1000007C10000A4
:1000300005C1000003C1000001C10000FFC00000B5
:10004000FDC00000FBC00000F9C00000F7C00000C8
:10005000F5C00000F3C00000F1C00000EFC00000D8
:10006000EDC00000EBC00000E9C00000E7C00000E8
:10007000E5C00000E3C00000E1C00000DFC00000F8
:10008000DDC00000DBC00000D9C00000D7C0000008
:10009000D5C00000D3C00000D1C0000042C40000A1
:1000A0007DC40000B8C40000F3C40000C7C0000055
:1000B000C5C00000C3C00000C1C00000BFC0000038
:1000C000BDC00000BBC00000B9C00000B7C0000048
:1000D000B5C00000B3C00000B1C00000AFC0000058
:1000E000ADC00000ABC00000A9C00000A7C0000068
:1000F000A5C00000A3C00000A1C000009FC0000078
:100100009DC000009BC0000099C0000097C0000087
:1001100095C0000093C0000091C000000EC3000015
:1001200049C3000084C30000BFC3000087C00000B3
:1001300085C0000083C0000081C000007FC00000B7
:100140007DC000007BC0000079C0000077C00000C7
:1001500075C0000073C0000071C000006FC00000D7
:100160006DC000006BC0000069C0000067C00000E7
:1001700065C0000063C0000061C000005FC00000F7
:100180005DC000005BC0000059C0000057C0000007
:1001900055C0000053C0000051C000004FC0000017
:1001A0004DC000004BC0000049C0000047C0000027
:1001B00045C0000043C0000041C000003FC0000037
:1001C0003DC000003BC0000039C0000037C0000047
:1001D00035C0000033C0000031C000002FC0000057
:1001E0002DC000002BC0000029C0000027C0000067
:1001F00025C0000011241FBECFEFCDBFDFE3DEBF5F
:1002000000E00CBF18BE19BE1ABE1BBE10E2A0E073
:10021000B0E2EEE5FEE000E00BBF02C007900D92F9
:10022000A631B107D9F71BBE20E2A6E1B0E201C0BA
:100230001D92A132B207E1F7A9D50FC6E1CEFC01AC
:10024000918195FFFDCF608380E090E00895FC01EF
:1002500091819923ECF7808108954F925F926F927C
:100260007F928F929F92AF92BF92EF92FF920F93E5
:100270001F93CF937C014A015B0128013901FC01E6
:10028000848182FF16C0D901C801689412F8B6951E
:10029000A795979587951694D1F7B901A801032ED4
:1002A00036E176956795579547953A95D1F7302D74
:1002B00015C0D901C801689413F8B695A79597950C
:1002C00087951694D1F7B901A801032E37E17695E9
:1002D0006795579547953A95D1F7302D881599052B
:1002E000AA05BB0508F4A2C084169506A606B706A3
:1002F00008F49EC0F701848182FD04C0880C991C1B
:10030000AA1CBB1CC301B201A501940184D52F3FD7
:1003100031054105510508F48DC08FEF90E0A0E054
:10032000B0E0C9EF05C0281739074A075B0758F046
:10033000880F991FAA1FBB1FCD3F0CF48160CF5FB0
:10034000C73089F74DC0CC230CF04AC0D501C40199
:10035000880F991FAA1FBB1F880F991FAA1FBB1FB9
:10036000880F991FAA1FBB1F481A590A6A0A7B0ADD
:10037000CE3FECF48DEF9FEF8C1B9109C7FD939559
:1003800004C0440C551C661C771C8A95D2F7D50115
:10039000C401B695A79597958795BC01CD01640DCD
:1003A000751D861D971DA501940135D535C083E0C7
:1003B0008C0FA501940104C0220F331F441F551F49
:1003C0008A95D2F7DA01C901B695A79597958795D1
:1003D000BC01CD01640D751D861D971D1CD51CC06B
:1003E00083E08C0FA501940104C0220F331F441F2A
:1003F000551F8A95D2F7DA01C901B695A795979549
:100400008795BC01CD01640D751D861D971D03D513
:100410002150310941095109832F8F70C295C07F46
:10042000C82BF701C783268381E018C080E016C07F
:1004300080E014C0D501C401880F991FAA1FBB1FFB
:10044000880F991FAA1FBB1F880F991FAA1FBB1FC8
:10045000481A590A6A0A7B0AC9EF8CCFCF911F91BB
:100460000F91FF90EF90BF90AF909F908F907F90F3
:100470006F905F904F9008950F931F93CF93DF93EA
:10048000EC018B01009709F436C1803C910521F401
:1004900060E180E04AD32FC1C03484E0D80721F462
:1004A00068E080E042D327C1C115E4E0DE0721F413
:1004B00064E080E03AD31FC1C038F1E0DF0721F4E7
:1004C00062E080E032D317C1C11581E0D80721F482
:1004D00061E080E02AD30FC1C038E3E0DE0721F4F9
:1004E00061E081E022D307C1C039F3E0DF0721F4E6
:1004F00061E082E01AD3FFC0C11582E0D80721F481
:1005000062E081E012D3F7C0C034E2E0DE0721F4FC
:1005100062E082E00AD3EFC0C115F3E0DF0721F407
:1005200064E081E002D3E7C0C03283E0D80721F461
:1005300064E082E0FAD2DFC0C115E8E0DE0721F412
:1005400061E083E0F2D2D7C0C115F9E0DF0721F402
:1005500061E084E0EAD2CFC0C1158AE0D80721F477
:1005600061E085E0E2D2C7C0C115EBE0DE0721F40F
:1005700061E086E0DAD2BFC0C034F8E0DF0721F4E2
:1005800062E083E0D2D2B7C0C03489E0D80721F45A
:1005900062E084E0CAD2AFC0C034EAE0DE0721F4F2
:1005A00062E085E0C2D2A7C0C034FBE0DF0721F4DF
:1005B00062E086E0BAD29FC0C03988E0D80721F453
:1005C00064E083E0B2D297C0C039E9E0DE0721F4ED
:1005D00064E084E0AAD28FC0C039FAE0DF0721F4DA
:1005E00064E085E0A2D287C0C0398BE0D80721F44F
:1005F00064E086E09AD27FC0C03CE8E0DE0721F4E8
:1006000068E083E092D277C0C03CF9E0DF0721F4D4
:1006100068E084E08AD26FC0C03C8AE0D80721F449
:1006200068E085E082D267C0C03CEBE0DE0721F4E1
:1006300068E086E07AD25FC0C03AF8E0DF0721F4D4
:1006400060E183E072D257C0C03A89E0D80721F454
:1006500060E184E06AD24FC0C03AEAE0DE0721F4EC
:1006600060E185E062D247C0C03AFBE0DF0721F4D9
:1006700060E186E05AD23FC0C03B88E0D80721F451
:1006800060E283E052D237C0C03BE9E0DE0721F4EC
:1006900060E284E04AD22FC0C03BFAE0DF0721F4D9
:1006A00060E285E042D227C0C03B8BE0D80721F44E
:1006B00060E286E03AD21FC0C038E4E0DE0721F4F1
:1006C00060E483E032D217C0C039F4E0DF0721F4E0
:1006D00060E484E02AD20FC0C03A84E0D80721F455
:1006E00060E485E022D207C0C03BE4E0DE0719F4F5
:1006F00060E486E01AD28D818F738D83F801958135
:100700008481892B9681911198E0892B8D83F80142
:10071000408151816281738100E814E82EE130E06C
:10072000CE019BDD9C8198609C839C8190619C8321
:10073000DF91CF911F910F9108951F920F920FB6E5
:100740000F92112408B60F9218BE09B60F9219BE67
:100750000BB60F921BBE2F933F934F935F936F93F4
:100760007F938F939F93AF93BF93EF93FF934091AA
:10077000240250912502E0911820F091192061E0A7
:1007800080E092E01995FF91EF91BF91AF919F9119
:100790008F917F916F915F914F913F912F910F902A
:1007A0000BBE0F9009BE0F9008BE0F900FBE0F90AA
:1007B0001F9018951F920F920FB60F92112408B632
:1007C0000F9218BE09B60F9219BE0BB60F921BBE40
:1007D0002F933F934F935F936F937F938F939F9349
:1007E000AF93BF93EF93FF9340912C0250912D0252
:1007F000E0911820F091192062E080E092E01995D4
:10080000FF91EF91BF91AF919F918F917F916F91E8
:100810005F914F913F912F910F900BBE0F9009BEAA
:100820000F9008BE0F900FBE0F901F9018951F924B
:100830000F920FB60F92112408B60F9218BE09B688
:100840000F9219BE0BB60F921BBE2F933F934F937F
:100850005F936F937F938F939F93AF93BF93EF9328
:10086000FF934091340250913502E0911820F091AD
:10087000192064E080E092E01995FF91EF91BF911B
:10088000AF919F918F917F916F915F914F913F9128
:100890002F910F900BBE0F9009BE0F9008BE0F90C6
:1008A0000FBE0F901F9018951F920F920FB60F92C8
:1008B000112408B60F9218BE09B60F9219BE0BB6D6
:1008C0000F921BBE2F933F934F935F936F937F9332
:1008D0008F939F93AF93BF93EF93FF9340913C020D
:1008E00050913D02E0911820F091192068E080E0DD
:1008F00092E01995FF91EF91BF91AF919F918F91E8
:100900007F916F915F914F913F912F910F900BBE0F
:100910000F9009BE0F9008BE0F900FBE0F901F9052
:1009200018951F920F920FB60F92112408B60F92CE
:1009300018BE09B60F9219BE0BB60F921BBE2F93AD
:100940003F934F935F936F937F938F939F93AF9357
:10095000BF93EF93FF934091640250916502E09141
:100960001620F091172061E080E492E01995FF9144
:10097000EF91BF91AF919F918F917F916F915F9117
:100980004F913F912F910F900BBE0F9009BE0F908A
:1009900008BE0F900FBE0F901F9018951F920F92D8
:1009A0000FB60F92112408B60F9218BE09B60F9217
:1009B00019BE0BB60F921BBE2F933F934F935F93BD
:1009C0006F937F938F939F93AF93BF93EF93FF9317
:1009D00040916C0250916D02E0911620F091172029
:1009E00062E080E492E01995FF91EF91BF91AF91A1
:1009F0009F918F917F916F915F914F913F912F9137
:100A00000F900BBE0F9009BE0F9008BE0F900FBE47
:100A10000F901F9018951F920F920FB60F921124EE
:100A200008B60F9218BE09B60F9219BE0BB60F92F8
:100A30001BBE2F933F934F935F936F937F938F933F
:100A40009F93AF93BF93EF93FF93409174025091A4
:100A50007502E0911620F091172064E080E492E0A6
:100A60001995FF91EF91BF91AF919F918F917F91D8
:100A70006F915F914F913F912F910F900BBE0F900F
:100A800009BE0F9008BE0F900FBE0F901F901895D3
:100A90001F920F920FB60F92112408B60F9218BE34
:100AA00009B60F9219BE0BB60F921BBE2F933F9340
:100AB0004F935F936F937F938F939F93AF93BF9366
:100AC000EF93FF9340917C0250917D02E0911620BC
:100AD000F091172068E080E492E01995FF91EF9182
:100AE000BF91AF919F918F917F916F915F914F9146
:100AF0003F912F910F900BBE0F9009BE0F9008BE33
:100B00000F900FBE0F901F9018958FEF809370007D
:100B100080937100809372008093730080937400BF
:100B200080937500809376000895CF93DF931F9292
:100B3000CDB7DEB79FB79983F8949981E82FF0E09D
:100B4000E059FF4F60958081682360839FBF0F90BD
:100B5000DF91CF910895CF93DF93FC0120E030E047
:100B6000C62FD0E0DE01022E02C0B595A7950A94EB
:100B7000E2F7A0FD508B2F5F3F4F319628303105B3
:100B800089F740FF0AC041FF03C0FC01658302C032
:100B9000FC016683FC01618302C0FC016283DF917A
:100BA000CF91089543E050E061E080E896E0D3DF24
:100BB00043E050E062E080E896E0CDDF43E050E0C3
:100BC00064E080E896E0C7DF43E050E068E080E85A
:100BD00096E0C1DF43E050E060E180E896E0BBDFF3
:100BE00043E050E060E280E896E0B5DF43E050E0AB
:100BF00060E480E896E0AFDF43E050E060E880E842
:100C000096E0A9DF40E058E161E080E696E0A3DFEE
:100C100040E058E162E080E696E09DDF40E058E188
:100C200064E080E696E097DF40E058E168E080E627
:100C300096E091DF40E058E160E180E696E08BDFEE
:100C400040E058E160E280E696E085DF40E058E170
:100C500061E080EE97E07FDF40E058E162E080EE07
:100C600097E079DF43E050E060E880E496E073DFEE
:100C700043E050E060E280E496E06DDF40E050E069
:100C800060E480E496E067DF43E050E068E080ECF9
:100C900097E061DF40E050E061E080E096E05BDFFC
:100CA00040E050E064E080E096E055DF40E050E056
:100CB00062E080E296E04FDF40E057E062E080E2F1
:100CC00096E049DF40E057E061E080E296E043DFF4
:100CD00041E050E068E080E296E03DDF40E057E030
:100CE00064E080E296E037DF43E050E068E080ECCB
:100CF00097E031DF43E050E068E080E496E02BDFEE
:100D000040E050E064E080E496E025DF43E050E01E
:100D100068E080E696E01FDF40E050E064E080E6B7
:100D200096E019CF08950F931F93CF93DF93662317
:100D300059F08C01EC01060F111D699180EA98E0D1
:100D40007EDAC017D107C9F7DF91CF911F910F91BC
:100D50000895CF93809107208823B1F0C0E080EA06
:100D600098E075DA8093202080912020843261F011
:100D7000EC2FF0E080912020E85FFF4D8083CF5F73
:100D800080910720C81758F3CF910895CF93DF9330
:100D9000CDB7DEB72C97CDBFDEBF04DFB6DEEAE10C
:100DA000F0E21082118212821382148281E0858324
:100DB00087E08093A200789460E070E280EA98E097
:100DC0005BDB8BE0EAE0F0E2DE01129601900D922F
:100DD0008A95E1F7BEDF6091072088E090E2A3DF0B
:100DE000809108208133B1F76AE0CE0102969BDF43
:100DF00081E6898361E0CE01019695DF89818F5F6D
:100E000089838B37B8F380E090E02C96CDBFDEBFAE
:100E1000DF91CF910895A1E21A2EAA1BBB1BFD0101
:100E20000DC0AA1FBB1FEE1FFF1FA217B307E407C9
:100E3000F50720F0A21BB30BE40BF50B661F771F21
:100E4000881F991F1A9469F7609570958095909501
:0E0E50009B01AC01BD01CF010895F894FFCFC6
:100E5E00802500000300000161000A0D48656C6CDE
:060E6E006F210A0D0000D7
:00000001FF
